:02000002D0002C
:1040000000400D00787A0D00000006000C0005014C
:084010000401DE0500000000C0
:04401800086D0D0022
:1040200009480A49884208B505D0094A824202D0A7
:10403000121A02F025FE0748074A0021121A02F060
:104040002AFE014808BD00BF28DF0320D4750D00FB
:10405000A4E30320A4E30320F0E7032070B501F0FC
:1040600013FB074C074BE41AA40800251E46A54283
:1040700004D056F8253098470135F8E770BD00BFE9
:10408000CC750D008C750D0000F020B808B500F05F
:104090003FF8BDE8084001F0B9BA00F0DBBF00F01E
:1040A000D9BF000008B5034A00210C2000F046FFEC
:1040B000FEE700BF2D4D0D000078B0FA80F04009FA
:1040C00070470123037070477047000010B501F07E
:1040D000DBFB0D4C4FF4165101F0CAFB01F032FF2F
:1040E00001F0B8FC3C220221204600F06DFA204687
:1040F00000F0BAFB204600F039FB044BBDE810404D
:10410000186801F045BA00BFA8E3032028DF0320A8
:1041100038B50E2001F0A2FE054601F0B5FB0446BD
:10412000284602F0F1F908A3D3E9002302F052FA7D
:1041300002F048FD022100EE100A2046BDE838409A
:1041400001F005BAAFF30080051450400105743F3B
:1041500010B52421044601F029FF204610BD0000BF
:1041600010B5074C00F05AFD4FF0FF31204600F02B
:10417000CDF92046034A0449BDE8104001F008BFCC
:10418000A8E30320A4E30320C9400D00F0B5447E5A
:10419000BDF81450022C08D0032C0FD0012C70D184
:1041A0000489013CA21A12B20CE04489013CA21A13
:1041B0000489E41A611A12B209B262E04489E41A6D
:1041C000611A09B2002A5BDBB0F90840944240F35F
:1041D00090800029BEBF5B181BB20021B0F90A0015
:1041E000CC188442C4BF431A1BB2002B40F3818019
:1041F000C9B2C8083F4F02EBC01211F00701DBB291
:1042000007EB020417D0C1F10801C8B23A49834252
:104210000E5C3FBFC3EB000EFF2141FA0EF10E40D2
:10422000B95C012D0CBF3143B1438342B95460D313
:10423000181AC3B28034072B17D9012D0CBFFF20E9
:10424000002004F180011A46083AD2B2072A01F888
:10425000800C01F18001F7D8A3F10802C2F3C40277
:10426000013204EBC21403F00703002B41D0234AB0
:10427000D25C2378012D0CBF134393432370F0BD10
:10428000F0BD002A35DBB0F90A40944231DD002947
:10429000BCBFC9180BB2B0F90870B8BF0021CE1866
:1042A000BE42C4BF631A1BB2002B22DDD01001EB4B
:1042B000C011104802F007020144012000FA02F286
:1042C0008542D2B209D1013B1BB25C1C11D011F85E
:1042D000010B104301F8010CF5E7D243D2B2013BC8
:1042E0001BB2581C05D011F8010B104001F8010C4D
:1042F000F5E7F0BD3CDF032034DF03202CDF032093
:10430000F0B5447EBDF81450022C08D0032C0FD019
:10431000012C12D10489E41AA21A12B26DE00489A8
:10432000013C611A4489E41AA21A09B212B204E0EB
:104330004489013C611A09B25FE000295CDBB0F9F5
:1043400008408C4240F39180002ABCBFD21813B2BF
:10435000B0F90A00B8BF0022D4188442C4BF831A3F
:104360001BB2002B40F38180D4B2404EDAB2E30896
:1043700001EBC31114F0070406EB010317D0C4F1DD
:104380000804E0B23A4C8242275C3FBFC2EB000E09
:10439000FF2444FA0EF42740745C012D0CBF3C430B
:1043A000BC438242745460D3101AC2B28033072ACD
:1043B00017D9012D0CBFFF24002403F18000114602
:1043C0000839C9B2072900F8804C00F18000F7D8FD
:1043D000A2F10801C1F3C401013103EBC11302F0E2
:1043E0000702002A41D02349895C1A78012D0CBFAD
:1043F0000A438A431A70F0BDF0BD002935DBB0F9DD
:104400000A408C4231DD002ABCBFD21813B2B0F989
:104410000870B8BF0022D618BE42C4BFA31A1BB290
:10442000002B22DDC81002EBC012104801F007017A
:104430001044012202FA01F19542C9B209D15A1E73
:1044400013B25C1C11D010F8012B0A4300F8012CA8
:10445000F5E7C943C9B25A1E13B25A1C05D010F869
:10446000012B0A4000F8012CF5E7F0BD3CDF0320EA
:1044700034DF03202CDF0320F8B50D1E064614465A
:104480001F463FDB00F0B1FB85423BDA002C39DBF5
:10449000304600F0ADFB844234DA304600F0A3FB36
:1044A000022827D13189708901390138491B001B45
:1044B0000DB204B206E0012804D13389013B1B1B75
:1044C0002C461DB20820012F94FBF0F000B20E4BD9
:1044D00004F0070205EBC01104D197405A5C174362
:1044E0005F54F8BD585C012707FA02F220EA020285
:1044F0005A54F8BD0328DED17389013B5B1B254666
:104500001CB2DFE7F8BD00BF3CDF032038B5402216
:1045100004460D46802100F087FA064B2360FF23F6
:10452000637784F82130E377A37784F8205020461E
:1045300038BD00BF246D0D0038B590F91D30013332
:1045400004460D4628D090F92100012180B201F0E7
:104550006CFC94F91F00002180B201F066FC94F914
:104560002100002180B201F060FC94F822302BB1D0
:1045700001F0AEFC294600F06FFE05E02B4601225B
:10458000A17F607F01F081FC94F92100012180B2BC
:10459000BDE8384001F049BC01F0D4FC94F91B108F
:1045A00001F062FA01F0CEFC036800219B68984795
:1045B00001F0C8FC036829469B68984701F0C2FCDB
:1045C000BDE8384001F057BA38B504460D462177AA
:1045D00090F91D30C276013337D090F91F000121C8
:1045E00080B201F011FC94F92100012180B201F0A8
:1045F0000BFC94F822305BB994F91D00012180B2C4
:1046000001F002FC94F91E00012180B201F0FCFBD4
:1046100094F82230EBB194F92100012180B201F02D
:1046200004FC01F055FC012100F087FD01F050FC75
:10463000102100F0EDFD01F04BFC002100F08EFD9B
:1046400001F046FC00F068FD03E001F07BFC01F0A6
:1046500001FA94F92000012180B201F0D5FB94F910
:104660002000012180B201F0E0FB012000F090FF6A
:1046700094F92000002180B201F0D7FB0A2000F05D
:1046800087FF94F92000012180B201F0CEFB204683
:10469000AE21FFF751FF2046D521FFF74DFF204601
:1046A0008021FFF749FF2046A821FFF745FF20465C
:1046B0003F21FFF741FF2046D321FFF73DFF204672
:1046C0000021FFF739FF20464021FFF735FF8D21FC
:1046D0002046FFF731FF012D0CBF10211421204689
:1046E000FFF72AFF20462021FFF726FF2046002162
:1046F000FFF722FF2046A121FFF71EFF2046C82119
:10470000FFF71AFF2046DA21FFF716FF2046122195
:10471000FFF712FF81212046FFF70EFF012D0CBF8E
:104720009F21CF212046FFF707FFD9212046FFF721
:1047300003FF012D0CBF2221F1212046FFF7FCFED3
:104740002046DB21FFF7F8FE20464021FFF7F4FE6C
:104750002046A421FFF7F0FE2046A621FFF7ECFE3D
:104760002046AF21BDE83840FFF7E6BE2DE9F04115
:1047700021210446FFF7E0FE00212046FFF7DCFE82
:104780007F212046FFF7D8FE22212046FFF7D4FEE6
:1047900000212046FFF7D0FE07212046FFF7CCFE80
:1047A00094F91D30DFF8BC80013335D094F9210035
:1047B000012180B201F039FB94F91F00012180B280
:1047C00001F033FB94F92100002180B201F02DFBB0
:1047D000012000F0ABFA002594F8223018F80560AB
:1047E0002BB101F075FB314600F036FD05E0334694
:1047F0000122A17F607F01F048FB0135B5F5806F94
:10480000EAD1012000F092FA94F92100012180B24E
:10481000BDE8F04101F009BB002501F093FB94F9DC
:104820001B1001F021F901F08DFB036840219B680A
:104830009847002601F086FBAF190368BFB29B685A
:1048400018F8071001369847102EF3D1103501F0F3
:1048500079FBADB201F00FF9B5F5806FDDD1BDE8A0
:10486000F08100BF3CDF03204FF48062002101484B
:1048700002F011BA3CDF032000F0D0B92DE9F04F6F
:1048800085B01E46BDF93830BDF83CA015469A1AD1
:10489000002AB8BF52420092721A002AB8BF524290
:1048A00001920C46009A01998A42814605DD324602
:1048B0001E46134622462C461546B44205DD2A46BE
:1048C0001D4613462246344616465A1B002AB8BFD8
:1048D0005242C4EB06089D42B4BF01234FF0FF33A0
:1048E0001FFA88F8029303920FFA88F7022297FBC7
:1048F000F2F7B4421FDC019A009B9342D9F80030D2
:10490000C8BF2246D3F810B0C8BF29465346DCBF03
:104910002A4621464846D847039BFF1ABBB21FB21E
:10492000002F05DA029A08EB030715442DB23FB2B7
:10493000013424B2DDE705B0BDE8F08F2DE9F3477F
:10494000BDF82C600768BDF928A000960446FF69F1
:1049500091460D469846B847236800960AF1FF3203
:104960004A44DF6929464346204612B2B8472368C5
:1049700000969F694A46534629462046B847236811
:104980000A9608F1FF3129449D694A46534609B207
:104990002046AC4602B0BDE8F047604737B5013B62
:1049A00013440468BDF8185001951BB20093646964
:1049B0000B46A04703B030BD37B5BDF818500468AA
:1049C0008DE82400013B0B4464691BB2A04703B08F
:1049D00030BD2DE9F347BDF92880BDF82C90054680
:1049E00017460C4601EB030A54450BDA2B68CDF849
:1049F00000909E69214643463A4628460134B04716
:104A000024B2F1E702B0BDE8F08713B5B0F90E208B
:104A10000468019100920022B0F90C30646A1146DA
:104A2000A04702B010BD704730B501810024084D89
:104A300042818181C2814FF6FF710122446005608D
:104A40004476048244820276C1828182827630BDBD
:104A50005C6D0D002DE9F04F8FB005460691BDF855
:104A600060100791BDF864100891B0F90C10069819
:104A70009DF8688081427CDDB5F90E10914278DDA9
:104A8000062111FB0800002873DD02EBC800002896
:104A90006FDD03EB830396B20C9306F108039BB220
:104AA000099100240D93052C1CBF334B0C9A0596DD
:104AB00016BF1B194FF0000913F8029004961FFA55
:104AC00088F30393039ABDF8183004FB023213FAFB
:104AD00084F312B21BB20A9237460FFA88FA0B938C
:104AE00019F0010F11D0B8F1010F2B6803D1D3F8E1
:104AF00010B0079B14E0079A0192CDF800A0D3F8FC
:104B000024B0BDF91020534618E0079B089A934241
:104B100017D0B8F1010F2B6807D1D3F810B01346A6
:104B20003AB20B992846D8470BE0089A0192CDF883
:104B300000A0BDF91420D3F824B053460A992846A2
:104B4000D847049B039A13449BB20493059B1344D8
:104B50009BB2013705930D9BBFB29F424FEA5909A3
:104B6000BED1099B013B013413F0FF0364B20993EA
:104B700099D10FB0BDE8F08F8C6D0D0030B50A29CA
:104B800085B004460B4604D1027E438A03EBC20380
:104B900023E00D2924D0057EB0F91220B0F91010C1
:104BA0000295C58A0195858A0095FFF753FF227EFD
:104BB000238A91B201EB410003EB4003A07E1BB2BC
:104BC000238268B1B4F90C006FF0050505FB020201
:104BD000934205DD638A03EBC103638200232382D2
:104BE000012005B030BD407E7047B0F90C00704721
:104BF000B0F90E00704700F011B8000008B5024B84
:104C00001B689B68019308BD6802030008B5024B4E
:104C10001B68DB68019308BD6802030008B5024BFE
:104C20001B681B68019308BD2C02030008B5024BEA
:104C30001B685B68019308BD2C02030008B5024B9A
:104C40001B689B68019308BD2C02030008B5024B4A
:104C50001B68DB68019308BD2C02030008B5024BFA
:104C60001B681B69019308BD2C02030008B5024BA9
:104C70001B681B6B019308BD2C02030008B5024B97
:104C80001B681B68019308BD3002030008B5024B86
:104C90001B689B68019308BD3002030008B5024BF6
:104CA0001B68DB68019308BD3002030008B5024BA6
:104CB0001B681B69019308BD3002030008B5024B55
:104CC0001B685B69019308BD3002030008B5024B05
:104CD0001B68DB69019308BD3002030008B5024B75
:104CE0001B681B6A019308BD3002030008B5024B24
:104CF0001B685B6A019308BD3002030008B5024BD4
:104D00001B681B6C019308BD3002030008B5024B01
:104D10001B685B6C019308BD3002030008B5024BB1
:104D20001B685B68019308BD1802030008B5024BBD
:104D30001B68DB68019308BD1802030008B5024B2D
:104D40001B685B69019308BD1802030008B5024B9C
:104D50001B689B68019308BD4802030008B5024B1D
:104D60001B681B69019308BD4802030008B5024B8C
:104D70001B685B69019308BD4802030008B5024B3C
:104D80001B685B6C019308BD4802030008B5024B29
:104D90001B689B6C019308BD4802030008B5024BD9
:104DA0001B685B69019308BD6402030008B5024BF0
:104DB0001B681B68019308BD3C02030008B5024B49
:104DC0001B68DB68019308BD3C02030008B5024B79
:104DD0001B681B69019308BD3C02030008B5024B28
:104DE0001B685B69019308BD3C02030008B5024BD8
:104DF0001B689B69019308BD3C02030008B5024B88
:104E00001B68DB69019308BD3C02030008B5024B37
:104E10001B681B6A019308BD3C02030008B5024BE6
:104E20001B689B6A019308BD3C02030008B5024B56
:104E30001B68DB68019308BD2802030008B5024B1C
:104E40001B689B69019308BD2802030008B5024B4B
:104E50001B68DB69019308BD2802030008B5024BFB
:104E60001B681B6A019308BD2802030008B5024BAA
:104E70001B685B6A019308BD2802030008B5024B5A
:104E80001B689B6A019308BD2802030008B5024B0A
:104E90001B68DB6A019308BD2802030008B5024BBA
:104EA0001B681B6B019308BD2802030008B5024B69
:104EB0001B685B6B019308BD2802030008B5024B19
:104EC0001B681B6C019308BD2802030008B5024B48
:104ED0001B681B68019308BD4C02030008B5024B18
:104EE0001B685B68019308BD4C02030008B5024BC8
:104EF0001B681B69019308BD4C02030008B5024BF7
:104F00001B685B69019308BD4C02030008B5024BA6
:104F10001B689B69019308BD4C02030008B5024B56
:104F20001B68DB69019308BD4C02030008B5024B06
:104F30001B681B6A019308BD4C02030008B5024BB5
:104F40001B685B6B019308BD6002030008B5024B50
:104F50001B685B68019308BD2002030008B5024B83
:104F60001B685B69019308BD2002030008B5034B71
:104F70001B68D3F88830019308BD000020020300AD
:104F800008B5034B1B68D3F89430019308BD0000AB
:104F90002002030008B5024B1B685B68019308BD43
:104FA0004002030008B5024B1B689B68019308BDD3
:104FB0004002030008B5024B1B68DB68019308BD83
:104FC0004002030008B5024B1B681B69019308BD32
:104FD0004002030008B5024B1B685B69019308BDE2
:104FE0004002030008B5024B1B689B69019308BD92
:104FF0004002030008B5024B1B68DB69019308BD42
:105000004002030008B5024B1B681B6A019308BDF0
:105010004002030008B5024B1B681B6B019308BDDF
:105020004002030008B5024B1B685B6B019308BD8F
:105030004002030008B5024B1B68DB6B019308BDFF
:105040004402030008B5024B1B681B68019308BDAE
:105050001C02030008B5024B1B685B68019308BD86
:105060001C020300002211464068FFF7CBBF00225C
:1050700011464068FFF7D6BF00224068FFF7CABF5D
:10508000002281F001014068FFF7B4BF00231A46F7
:1050900019464068FFF7A6BF00231A461946406824
:1050A000FFF798BF002211464068FFF78BBF002230
:1050B00011464068FFF776BF002202214068FFF7E3
:1050C00079BF00231A464068FFF764BF024B0322F2
:1050D0005A60024A1A607047CCE3032090720D00B8
:1050E000704710B50C21044600F060FF204610BD4B
:1050F0000021FFF703BE0021FFF708BE10B5054BE6
:105100000360044601710846FFF7E0FD0023A36039
:10511000204610BDC4720D0010B504460079FFF79B
:10512000E7FF48B920794FF6FF71FFF7A7FD207917
:10513000BDE81040FFF7DFBF10BD38B50446007969
:105140000D46FFF7D5FF40B920792946FFF79EFDB0
:105150002079BDE83840FFF7CEBF38BD38B50446EA
:1051600000790D46FFF7C4FF40B920792946FFF7C3
:1051700095FD2079BDE83840FFF7BDBF38BD000080
:10518000400830B51860002418688842E5B206D996
:105190000134082C02D040081860F5E70725024BBF
:1051A0005B5D137030BD00BFCC720D002DE9F04186
:1051B00088B000230446007902930E461746FFF795
:1051C00097FF054600BB94F804800146142203A80B
:1051D00001F061FD0B232A4603A94046ADF80C30CF
:1051E000FFF784FD02AB0DF1070207FB06F10498FF
:1051F0008DF80750FFF7C4FF20799DF80710FFF7DF
:1052000055FD2079FFF777FF029808B0BDE8F081DF
:1052100038B5044600790D46FFF76AFFC8B9A168A2
:1052200071B10C4BC25CAA4202D001300828F9D1FE
:105230000130C0B2C14001222046FFF7B7FF03E0B2
:1052400029462079FFF732FD2079BDE83840FFF785
:1052500052BF38BDCC720D0038B5044600790D46FA
:10526000FFF746FF40B929462079FFF727FD05469D
:105270002079FFF740FF00E00025E8B238BD007953
:10528000FFF72CBD10B50446006818B1FFF7E2FE29
:105290000023236010BD10B50446FFF7F3FF20463E
:1052A00010BD000010B5094C00204FF6FF732060C0
:1052B000A080A07120816381FFF748FE2046044A48
:1052C0000449BDE8104000F063BE00BFD4E30320F2
:1052D000A4E3032097520D0010B50446006808B1FE
:1052E000FFF754FD204610BD10B5064C00232046A4
:1052F0002360FFF743FD2046034A0449BDE8104000
:1053000000F046BEE0E30320A4E30320D9520D00E1
:10531000F8B506460D468F180024BD420CD0336800
:1053200015F8011B9B6830469847002801DB0444B0
:10533000F3E7002C08BF04462046F8BD70B50546CB
:105340000C46084649B101F0D7FC2B6802462146BD
:105350002846DB68BDE87040184770BD03689B684D
:10536000184738B50D210546FFF7F8FF0A21044616
:105370002846FFF7F3FF204438BD30B58BB00B460D
:1053800000218DF82410012A98BF0A220DF1230470
:10539000B3FBF2F505FB123303F0FF03092B94BFB7
:1053A00030333733DBB2214604F801392B46002D68
:1053B000EED1FFF7C3FF0BB030BD00002DE9F04781
:1053C00057EC106B82460D4610EE102A3B4610EE4D
:1053D000100A394601F098FB08B14E4912E027F057
:1053E00000494FF0FF324C4B3046494601F08CFBF0
:1053F00068B94FF0FF32484B3046494601F066FB32
:1054000028B946495046FFF799FFBDE8F0874FF0AD
:105410006042434B3046394601F06CFB08B14149CC
:10542000F0E74FF06042404B3046394601F044FB14
:105430000028F4D1002200233046394601F03CFB1D
:1054400040B12D215046FFF789FF07F10043044684
:105450001F4600E0044635494FF0000800205FFA7F
:1054600088F39D4206D90022314B01F0DDF908F1A5
:105470000108F4E732463B4600F0FAFE0F460646C6
:1054800001F080FB0A22014680465046FFF775FF77
:105490000444E5B3404601F027F802460B46304687
:1054A000394600F0E3FE06460F4650462149FFF715
:1054B00045FF044400221E4B3046394601F08AF86D
:1054C00006460F4601F036FBB0F1000907DA2D2140
:1054D0005046FFF743FFC9F10001804602E049460C
:1054E0004FF000080A225046FFF747FF40440444AB
:1054F000484601F009F802460B463046394600F0AE
:10550000B5FE013D15F0FF0506460F46D2D12046F7
:10551000BDE8F087D4720D00FFFFEF7FDE720D0053
:10552000FFFFEF41D8720D00FFFFEFC10000E03F29
:1055300000002440DC720D0038B5C9B20546FFF703
:105540003DFF04462846FFF70CFF204438BD38B520
:10555000044610EE100A0D4600F0E8FF41EC100B77
:1055600029462046BDE83840FFF7E6BF014B024A16
:105570001A607047E4E3032055730D00024B1A686C
:10558000024B1A60704700BF3CE30320E8E30320AE
:105590000021FFF7E3BC10B58368044613B1032272
:1055A00001469847204610BD10B50446FFF7F3FFAB
:1055B000204610BD0348044A04490023836000F0DC
:1055C000E7BC00BFECE30320A4E30320A9550D00D2
:1055D00008B50C4B33B100F057F903681B699847C5
:1055E000002809DC084B63B100F0D0F903681B699F
:1055F0009847002803DC08BDAFF30080F2E7AFF363
:10560000008008BD000000000000000008B5FFF7A2
:10561000DFFFFFF793FB014B186008BD30E7032065
:105620000248034A0349121A01F02ABB00F403207E
:1056300004F40320D0750D0007B5002300931A462B
:105640006FF07701FFF79CFC03B05DF804FB0000EE
:1056500007B543880A2B08D0502B09D1094B1B688A
:105660003BB103B05DF804EB1847FFF7E5FF06E038
:10567000002300931A466FF07701FFF781FC03B017
:105680005DF804FBFCE3032038B5104C104D236893
:10569000AB42104B0CBF012200221A7002D0FFF760
:1056A000BFFF2560FFF73AFB044601F0FDFA0A4B05
:1056B00013B12046AFF3008000210748FFF7BAFC82
:1056C00000210648BDE83840FFF750BC00F4032035
:1056D0001E1C279A00E403200000000051560D0014
:1056E000704710B51821044600F060FC204610BD3C
:1056F000F0B5037D062B8DB00E4600F104074FF088
:10570000000402D000F1080518E00CAD394605F898
:10571000304D2F232A460A20FFF740FB284601F090
:10572000EBFA33680246DB682946304698470FE0BB
:1057300024B12E213046FFF711FE044415F8011D57
:105740000A223046FFF719FEBD420444F0D120463C
:105750000DB0F0BD10B5054B0446112240F8043BD6
:10576000002101F098FA204610BD00BFF4730D002F
:105770000346074A10B543F8042B01F1100251F813
:10578000044B43F8044B9142F9D10A781A7010BDCA
:10579000F4730D0010B59DF8084044EA032343EA72
:1057A000024242EA016104234160037510BD37B52E
:1057B0000D788B784A78C97800912946FFF7EAFF7F
:1057C00003B030BD41747047704708B50021007CBC
:1057D000FFF79CFB30EA200028BF4FF0FF3008BDE8
:1057E00008B50121007CFFF791FB30EA200028BFBB
:1057F0004FF0FF3008BD08B5007CFFF77FFB20EAC3
:10580000E07008BD08B5007CFFF770FB20EAE0708F
:1058100008BD007CFFF78ABB10B51421044600F0D8
:10582000C5FB204610BD38B50446007C0D46FFF789
:1058300065FB002801DC607C28B12946207CFFF74D
:105840006DFB20EAE07038BD10B5044600236360AC
:105850004FF47A73A360054B23600123084621743B
:1058600063741146FFF732FB204610BD08740D002B
:105870000022007CFFF732BB10B514220446002141
:1058800001F009FA204610BD30B50E4D87B001A8D1
:10589000FFF7F2FF296811F0010410D12846FEF746
:1058A0000BFC60B101AA21460748FFF7CDFF28464F
:1058B000FEF707FC054A0649034800F069FB024869
:1058C00007B030BD04E4032008E40320A4E3032070
:1058D000C9570D0070474174704708B5007CFFF749
:1058E0009DFA20EAE07008BD08B5007CFFF76EFA6B
:1058F00020EAE07008BD08B5007CFFF777FA30EACF
:10590000200028BF4FF0FF3008BD08B5007CFFF72E
:1059100065FA30EA200028BF4FF0FF3008BD007C58
:10592000FFF76CBA10B51421044600F03FFB204687
:1059300010BD70B5457C04460E4625B9007CFFF7C6
:105940006DFA002805DD3146207CBDE87040FFF788
:1059500035BA284670BD000010B504460846114609
:10596000002262604FF47A72A260054A226001222E
:10597000207462741A46FFF719FA204610BD00BF62
:1059800038740D00007CFFF741BA000038B50C4DAB
:10599000296811F0010411D12846FEF78DFB68B18A
:1059A000084A094B09482146FFF7D6FF2846FEF76B
:1059B00088FB074A0749054800F0EAFA034838BD62
:1059C000B4E40320B8E4032030E403201CE4032003
:1059D000A4E30320D5580D007047F8B506461546D8
:1059E0000C468F18BC4206D0336814F8011B9B6824
:1059F00030469847F6E72846F8BD0022007CFFF7BE
:105A00002DBA0021007CFFF731BA0021007CFFF79E
:105A100035BA0021007CFFF739BA0021007CFFF77E
:105A20003DBA10B51421044600F0C0FA204610BD5E
:105A300010B50446002363604FF47A73A360044BEF
:105A40002174084623601146FFF738FA204610BD3E
:105A500068740D0000231A461946007CFFF7E6B96A
:105A60000022007CFFF7EAB9C9B2FFF7F9BF0022B4
:105A7000007CFFF7EBB90121FFF7F9BF0021007CA3
:105A8000FFF714BA002211464068FFF7BBBA0022A4
:105A900011464068FFF7C6BA00224068FFF7BABA5D
:105AA000002281F001014068FFF7A4BA00231A46E2
:105AB00001214068FFF796BA00231A46194640684C
:105AC000FFF788BA002211464068FFF77BBA002230
:105AD00011464068FFF766BA002202214068FFF7CE
:105AE00069BA00231A464068FFF754BA38B505462C
:105AF00088B104684CB1A3681BB10322214620463B
:105B000098471021204600F051FA28461421BDE89C
:105B1000384000F04BBA38BD10B103685B681847D5
:105B2000704710B503680446BBB15868FFF70EF91B
:105B300078B923685A7C12B95868FFF70FF92368BF
:105B40005868FFF713F920680023236028B1FFF796
:105B5000CDFF206808B1FFF7C9FF204610BD38B55A
:105B60000446D0F8C40108B1FEF799FAD4F8C00190
:105B700008B1FFF70BF9D4F8BC5135B12846FFF74F
:105B8000D0FF0421284600F011FA206808B1FFF781
:105B9000C3FF204638BD000010B5044B044640F852
:105BA000083BFFF7DCFF204610BD00BF90740D00DE
:105BB00038B50E4C0E4B23600025022304F5E4702B
:105BC0006360A560C4F8C451C4F8C851FFF7D6F8A3
:105BD000084BC4F8CC5184F8D05123602046064AC3
:105BE0000649BDE8384000F0D3B900BF3CE50320CA
:105BF000F8740D0090740D00A4E30320995B0D0070
:105C0000002211464068FFF7DDB9002211464068C6
:105C1000FFF7F8B9002211464068FFF703BA0022E7
:105C20004068FFF7F7B9002281F001014068FFF7F3
:105C3000E1B900231A4619464068FFF7D3B900239B
:105C40001A4619464068FFF7C5B900221146406858
:105C5000FFF7A8B9002202214068FFF7ABB9002383
:105C60001A464068FFF796B9024B04225A60024A6E
:105C70001A60704710E70320C4740D0000231A4611
:105C80004068FFF787B9002202214068FFF792B908
:105C9000002211464068FFF785B90022114640688E
:105CA000FFF790B900231A4619464068FFF792B9EA
:105CB00000231A4619464068FFF794B9002281F084
:105CC00001014068FFF796B900224068FFF7A2B9CA
:105CD000002211464068FFF7A5B90022114640682E
:105CE000FFF790B92DE9F043002495B016460D4614
:105CF0000746FFF72FFD214620220CA8009400F054
:105D0000CAFF40230C9321466B460CAA3046FEF78F
:105D10007DFF0446002844D1024601216868FFF750
:105D200051F90221804622466868FFF74BF9009E30
:105D300081462146002E34D0002932D17368022BCF
:105D400002D00A2B09D02AE0B8F1000F27D07169E0
:105D500038460431FFF72BFD20E0B9F1000F1ED0CB
:105D60007469112201A800F096FF06238DF8143003
:105D700001AD04F108031834186859682A4603C2B3
:105D80000833A3421546F7D101A906A807ADFFF7CE
:105D9000EFFC0FCD3C1D0FC42B6823700121F66969
:105DA000C8E70098FEF72AFF384615B0BDE8F08333
:105DB000024B034A1A6000225A60704718E703201A
:105DC000F8740D0010B5044600F082F8FFF757FA9A
:105DD00028B1A4F10B03022B01D8002010BD00F064
:105DE000B1F8FFF74BFE08B1012CF6D9FFF7CEFD55
:105DF000FFF7C8FD18B1A4F10903012BEDD9232C3D
:105E00008CBF0020012010BD232838B504460D4664
:105E10000AD8FF2908D0FFF7D5FF28B12946204628
:105E2000BDE83840FEF70ABF38BD38B504460D4618
:105E3000FEF70CFFFF2810D0062804D84D2323FAC4
:105E400000F0C30709D42046FFF7BCFF28B129465C
:105E50002046BDE83840FEF701BF38BD0D2810B51B
:105E600004469CBF0E34A4B22046FFF7ABFF50B1EE
:105E700003212046FEF7DAFE032804D12046BDE8C0
:105E80001040FEF7F3BE002010BD2DE9F041904612
:105E90001E46072407460D46B8F1000F04D1C4F191
:105EA000070146FA01F101E046FA04F101F00101AF
:105EB0003846FFF7BAFF01212846FFF7B6FF002159
:105EC0002846FFF7B2FF14F1FF34E5D2BDE8F081B8
:105ED00038B50B4D296811F001040FD12846FEF7A3
:105EE000EBF858B121460748FFF708F92846FEF7B6
:105EF000E8F8054A0549034800F04AF8014838BD6A
:105F00002CE7032020E70320A4E30320E1500D0049
:105F100070B5044614252A46094E002100F0BBFE48
:105F2000258020253146A5602561284600F040F8EF
:105F300031466060284600F03BF8E060204670BDC6
:105F400024750D0030B50E4D296811F0010487B09D
:105F500013D12846FEF7B0F878B101A8FFF7D8FFB3
:105F600001AA21460748FFF763FD2846FEF7A9F876
:105F7000054A0649034800F00BF8024807B030BD57
:105F800034E7032038E70320A4E30320D9590D00A8
:105F90000B460146184600F065BE0000024B18682B
:105FA000BFF35F8F704700BF4CE70320FEF775B863
:105FB00000F000B810B5002814BF044601242046A4
:105FC000FFF740F820B9FFF7E9FF08B18047F6E78F
:105FD00010BD0000184B1A68D1075CBF01221A607F
:105FE000164B1A68D2075CBF01221A60144B1A685C
:105FF000D0075CBF01221A60124B1A68D1075CBF40
:1060000001221A60104B1A68D2075CBF01221A6085
:106010000E4B1A68D0075CBF01221A600C4B1A683D
:10602000D1075CBF01221A600A4B1A68D2075CBF15
:1060300001221A60704700BF6CE7032068E7032065
:1060400064E7032060E703205CE7032058E70320B0
:1060500054E7032050E70320244B1A68D0075CBFA5
:1060600001221A60224B1A68D1075CBF01221A6014
:10607000204B1A68D2075CBF01221A601E4B1A68B7
:10608000D0075CBF01221A601C4B1A68D1075CBFA5
:1060900001221A601A4B1A68D2075CBF01221A60EB
:1060A000184B1A68D0075CBF01221A60164B1A6899
:1060B000D1075CBF01221A60144B1A68D2075CBF7B
:1060C00001221A60124B1A68D0075CBF01221A60C5
:1060D000104B1A68D1075CBF01221A600E4B1A6878
:1060E000D2075CBF01221A60704700BF9CE7032003
:1060F00098E7032094E7032090E703208CE7032030
:1061000088E7032084E7032080E703207CE703205F
:1061100078E7032074E7032070E70320244B1A6814
:10612000D0075CBF01221A60224B1A68D1075CBFFE
:1061300001221A60204B1A68D2075CBF01221A6044
:106140001E4B1A68D0075CBF01221A601C4B1A68EC
:10615000D1075CBF01221A601A4B1A68D2075CBFD4
:1061600001221A60184B1A68D0075CBF01221A601E
:10617000164B1A68D1075CBF01221A60144B1A68CB
:10618000D2075CBF01221A60124B1A68D0075CBFAD
:1061900001221A60104B1A68D1075CBF01221A60F5
:1061A0000E4B1A68D2075CBF01221A60704700BF0D
:1061B000CCE70320C8E70320C4E70320C0E703209F
:1061C000BCE70320B8E70320B4E70320B0E70320CF
:1061D000ACE70320A8E70320A4E70320A0E70320FF
:1061E000184B1A68D1075CBF01221A60164B1A6857
:1061F000D2075CBF01221A60144B1A68D0075CBF3B
:1062000001221A60124B1A68D1075CBF01221A6082
:10621000104B1A68D2075CBF01221A600E4B1A6835
:10622000D0075CBF01221A600C4B1A68D1075CBF13
:1062300001221A600A4B1A68D2075CBF01221A6059
:10624000704700BFECE70320E8E70320E4E7032002
:10625000E0E70320DCE70320D8E70320D4E70320AE
:10626000D0E7032081F0004102E000BF83F000434B
:1062700030B54FEA41044FEA430594EA050F08BFE1
:1062800090EA020F1FBF54EA000C55EA020C7FEAA5
:10629000645C7FEA655C00F0E2804FEA5454D4EB22
:1062A0005555B8BF6D420CDD2C4480EA020281EAEC
:1062B000030382EA000083EA010180EA020281EA24
:1062C0000303362D88BF30BD11F0004F4FEA013176
:1062D0004FF4801C4CEA113102D0404261EB410185
:1062E00013F0004F4FEA03334CEA133302D052420B
:1062F00063EB430394EA050F00F0A780A4F10104C7
:10630000D5F1200E0DDB02FA0EFC22FA05F2801800
:1063100041F1000103FA0EF2801843FA05F35941E6
:106320000EE0A5F120050EF1200E012A03FA0EFC65
:1063300028BF4CF0020C43FA05F3C01851EBE3718F
:1063400001F0004507D54FF0000EDCF1000C7EEBAC
:1063500000006EEB0101B1F5801F1BD3B1F5001FEA
:106360000CD349085FEA30004FEA3C0C04F1010409
:106370004FEA445212F5800F80F09A80BCF1004F32
:1063800008BF5FEA500C50F1000041EB045141EAB4
:10639000050130BD5FEA4C0C404141EB010111F4B5
:1063A000801FA4F10104E9D191F0000F04BF014660
:1063B0000020B1FA81F308BF2033A3F10B03B3F13E
:1063C00020020CDA0C3208DD02F1140CC2F10C02CE
:1063D00001FA0CF021FA02F10CE002F11402D8BF2C
:1063E000C2F1200C01FA02F120FA0CFCDCBF41EAF8
:1063F0000C019040E41AA2BF01EB0451294330BDC7
:106400006FEA04041F3C1CDA0C340EDC04F11404A3
:10641000C4F1200220FA04F001FA02F340EA03007A
:1064200021FA04F345EA030130BDC4F10C04C4F1C0
:10643000200220FA02F001FA04F340EA03002946A0
:1064400030BD21FA04F0294630BD94F0000F83F4EA
:10645000801306BF81F480110134013D4EE77FEACD
:10646000645C18BF7FEA655C29D094EA050F08BF19
:1064700090EA020F05D054EA000C04BF19461046FA
:1064800030BD91EA030F1EBF0021002030BD5FEA3E
:10649000545C05D14000494128BF41F0004130BD66
:1064A00014F580043CBF01F5801130BD01F00045BA
:1064B00045F0FE4141F470014FF0000030BD7FEA2D
:1064C000645C1ABF194610467FEA655C1CBF0B4628
:1064D000024650EA013406BF52EA033591EA030F3F
:1064E00041F4002130BD00BF90F0000F04BF002137
:1064F000704730B54FF4806404F132044FF000056A
:106500004FF0000150E700BF90F0000F04BF0021E2
:10651000704730B54FF4806404F1320410F0004548
:1065200048BF40424FF000013EE700BF42004FEA43
:10653000E2014FEA31014FEA02701FBF12F07F43C0
:1065400093F07F4F81F06051704792F0000F14BFBD
:1065500093F07F4F704730B54FF4607401F0004501
:1065600021F0004120E700BF50EA010208BF704758
:1065700030B54FF000050AE050EA010208BF70474D
:1065800030B511F0004502D5404261EB41014FF4B6
:10659000806404F132045FEA915C3FF4DCAE4FF0BA
:1065A00003025FEADC0C18BF03325FEADC0C18BFA1
:1065B000033202EBDC02C2F1200300FA03FC20FAF2
:1065C00002F001FA03FE40EA0E0021FA02F114443F
:1065D000C1E600BF70B54FF0FF0C4CF4E06C1CEA54
:1065E00011541DBF1CEA135594EA0C0F95EA0C0FC9
:1065F00000F0DEF82C4481EA030621EA4C5123EA3C
:106600004C5350EA013518BF52EA033541F480116A
:1066100043F4801338D0A0FB02CE4FF00005E1FB1D
:1066200002E506F00042E0FB03E54FF00006E1FB67
:1066300003569CF0000F18BF4EF0010EA4F1FF04AA
:10664000B6F5007F64F5407404D25FEA4E0E6D41EA
:1066500046EB060642EAC62141EA55514FEAC520FB
:1066600040EA5E504FEACE2EB4F1FD0C88BFBCF577
:10667000E06F1ED8BEF1004F08BF5FEA500E50F128
:10668000000041EB045170BD06F0004646EA0101EE
:1066900040EA020081EA0301B4EB5C04C2BFD4EB20
:1066A0000C0541EA045170BD41F480114FF0000E19
:1066B000013C00F3AB8014F1360FDEBF002001F087
:1066C000004170BDC4F10004203C35DA0C341BDC01
:1066D00004F11404C4F1200500FA05F320FA04F0D3
:1066E00001FA05F240EA020001F0004221F0004107
:1066F00010EBD37021FA04F642EB06015EEA430E7A
:1067000008BF20EAD37070BDC4F10C04C4F12005A9
:1067100000FA04F320FA05F001FA04F240EA02005C
:1067200001F0004110EBD37041F100015EEA430E2D
:1067300008BF20EAD37070BDC4F1200500FA05F24D
:106740004EEA020E20FA04F301FA05F243EA0203CC
:1067500021FA04F001F0004121FA04F220EA0200DB
:1067600000EBD3705EEA430E08BF20EAD37070BD21
:1067700094F0000F0FD101F00046400041EB010101
:1067800011F4801F08BF013CF7D041EA060195F0E3
:10679000000F18BF704703F00046520043EB03039D
:1067A00013F4801F08BF013DF7D043EA060370478A
:1067B00094EA0C0F0CEA135518BF95EA0C0F0CD095
:1067C00050EA410618BF52EA4306D1D181EA0301DB
:1067D00001F000414FF0000070BD50EA410606BFD5
:1067E0001046194652EA430619D094EA0C0F02D11A
:1067F00050EA013613D195EA0C0F05D152EA03365F
:106800001CBF104619460AD181EA030101F000417C
:1068100041F0FE4141F470014FF0000070BD41F0C5
:10682000FE4141F4780170BD70B54FF0FF0C4CF49F
:10683000E06C1CEA11541DBF1CEA135594EA0C0FBE
:1068400095EA0C0F00F0A7F8A4EB050481EA030E0B
:1068500052EA03354FEA013100F088804FEA0333F2
:106860004FF0805545EA131343EA12634FEA0222C0
:1068700045EA111545EA10654FEA00260EF0004181
:106880009D4208BF964244F1FD0404F5407402D2D3
:106890005B084FEA3202B61A65EB03055B084FEA64
:1068A00032024FF480104FF4002CB6EB020E75EB61
:1068B000030E22BFB61A754640EA0C005B084FEA89
:1068C0003202B6EB020E75EB030E22BFB61A754606
:1068D00040EA5C005B084FEA3202B6EB020E75EB51
:1068E000030E22BFB61A754640EA9C005B084FEAC9
:1068F0003202B6EB020E75EB030E22BFB61A7546D6
:1069000040EADC0055EA060E18D04FEA051545EAC4
:1069100016754FEA06164FEAC30343EA52734FEA6D
:10692000C2025FEA1C1CC0D111F4801F0BD141EAE6
:1069300000014FF000004FF0004CB6E711F4801F4B
:1069400004BF01430020B4F1FD0C88BFBCF5E06F2B
:106950003FF6AFAEB5EB030C04BFB6EB020C5FEA3B
:10696000500C50F1000041EB045170BD0EF0004E90
:106970004EEA113114EB5C04C2BFD4EB0C0541EAC2
:10698000045170BD41F480114FF0000E013C90E6BF
:1069900045EA060E8DE60CEA135594EA0C0F08BF83
:1069A00095EA0C0F3FF43BAF94EA0C0F0AD150EA82
:1069B00001347FF434AF95EA0C0F7FF425AF104615
:1069C00019462CE795EA0C0F06D152EA03353FF43D
:1069D000FDAE1046194622E750EA410618BF52EABA
:1069E00043067FF4C5AE50EA41047FF40DAF52EA8E
:1069F00043057FF4EBAE12E74FF0FF3C06E000BF2B
:106A00004FF0010C02E000BF4FF0010C4DF804CD37
:106A10004FEA410C7FEA6C5C4FEA430C18BF7FEAF7
:106A20006C5C1BD001B050EA410C0CBF52EA430C25
:106A300091EA030F02BF90EA020F0020704710F1A5
:106A4000000F91EA030F58BF994208BF90422CBF34
:106A5000D8176FEAE37040F0010070474FEA410C2D
:106A60007FEA6C5C02D150EA013C07D14FEA430C4B
:106A70007FEA6C5CD6D152EA033CD3D05DF8040BBC
:106A8000704700BF8446104662468C4619466346EE
:106A900000E000BF01B5FFF7B7FF002848BF10F1C5
:106AA000000F01BD4DF808EDFFF7F4FF0CBF01200A
:106AB00000205DF808FB00BF4DF808EDFFF7EAFF86
:106AC00034BF012000205DF808FB00BF4DF808ED41
:106AD000FFF7E0FF94BF012000205DF808FB00BF36
:106AE0004DF808EDFFF7CEFF94BF012000205DF8C0
:106AF00008FB00BF4DF808EDFFF7C4FF34BF0120CD
:106B000000205DF808FB00BF4FEA410C7FEA6C5C97
:106B100002D150EA013C0AD14FEA430C7FEA6C5C97
:106B200002D152EA033C02D14FF0000070474FF00F
:106B3000010070474FEA410212F5001215D211D53B
:106B40006FF47873B3EB625212D94FEAC12343F06A
:106B5000004343EA505311F0004F23FA02F018BFEC
:106B6000404270474FF00000704750EA013005D1B5
:106B700011F0004008BF6FF0004070474FF0000078
:106B8000704700BF4A0011D212F5001211D20DD584
:106B90006FF47873B3EB62520ED44FEAC12343F023
:106BA000004343EA505323FA02F070474FF00000CD
:106BB000704750EA013002D14FF0FF3070474FF07C
:106BC000000070474FEA4102B2F1E04324BFB3F541
:106BD000001CDCF1FE5C0DD901F0004C4FEAC00254
:106BE0004CEA5070B2F1004F40EB830008BF20F038
:106BF0000100704711F0804F21D113F13872BCBFF2
:106C000001F00040704741F480114FEA5252C2F146
:106C10001802C2F1200C10FA0CF320FA02F018BF8F
:106C200040F001004FEAC1234FEAD32303FA0CFCE2
:106C300040EA0C0023FA02F34FEA4303CCE77FEA71
:106C4000625307D150EA01331EBF4FF0FE4040F4BB
:106C50004000704701F0004040F0FE4040F400006A
:106C6000704700BF10B5054C13462CB10A460146CB
:106C70000220AFF3008010BD204610BD00000000D0
:106C800010B5431E0A44914204D011F8014B03F899
:106C9000014FF8E710BD02440346934202D003F8C7
:106CA000011BFAE77047000038B5124B1C68A36B54
:106CB0000546D3B91820FEF7C5F943F20E33A06399
:106CC00003804AF6CD33438041F2342383804EF271
:106CD0006D63C3804DF6EC630381052343810B2371
:106CE000838101220023C0E90423A36B00221D61DC
:106CF0005A6138BDA0E30320034613F8012B002A94
:106D0000FBD1181A0138704721400D005D400D007D
:106D100089400D008D400D000000000000000000C3
:106D200000000000C9400D0051410D007D4B0D00D9
:106D300011530D0079440D007D480D0001430D00F5
:106D40008D410D003D490D00D3490D000B4A0D004A
:106D5000274A0D00000000000000000000000000B5
:106D6000000000007D4B0D0011530D00A5400D00EB
:106D70007D480D009D490D00B9490D003D490D00AC
:106D8000D3490D000B4A0D00274A0D0000000000FA
:106D9000003E5B4F5B3E3E6B4F6B3E1C3E7C3E1CA1
:106DA000183C7E3C181C577D571C1C5E7F5E1C00E7
:106DB000183C1800FFE7C3E7FF0018241800FFE79E
:106DC000DBE7FF30483A060E2629792926407F0561
:106DD0000507407F05253F5A3CE73C5A7F3E1C1C77
:106DE00008081C1C3E7F14227F22145F5F005F5F37
:106DF00006097F017F006689956A60606060609423
:106E0000A2FFA29408047E040810207E2010080827
:106E10002A1C08081C2A08081E101010100C1E0C32
:106E20001E0C30383E3830060E3E0E0600000000C4
:106E30000000005F00000007000700147F147F14AB
:106E4000242A7F2A122313086462364956205000F0
:106E500008070300001C2241000041221C002A1CDC
:106E60007F1C2A08083E08080080703000080808C7
:106E70000808000060600020100804023E514945E7
:106E80003E00427F400072494949462141494D3305
:106E90001814127F1027454545393C4A494931416C
:106EA000211109073649494936464949291E00003A
:106EB000140000004034000000081422411414148F
:106EC0001414004122140802015909063E415D597B
:106ED0004E7C1211127C7F494949363E4141412284
:106EE0007F4141413E7F494949417F090909013EAE
:106EF000414151737F0808087F00417F41002040D5
:106F0000413F017F081422417F404040407F021CE6
:106F1000027F7F0408107F3E4141413E7F090909FD
:106F2000063E4151215E7F091929462649494932C9
:106F300003017F01033F4040403F1F2040201F3F8F
:106F40004038403F63140814630304780403615914
:106F5000494D43007F414141020408102000414156
:106F6000417F040201020440404040400003070802
:106F70000020545478407F284444383844444428FE
:106F8000384444287F385454541800087E090218A5
:106F9000A4A49C787F0804047800447D400020402D
:106FA000403D007F1028440000417F40007C047871
:106FB00004787C080404783844444438FC182424B9
:106FC0001818242418FC7C08040408485454542439
:106FD00004043F44243C4040207C1C2040201C3CB6
:106FE0004030403C44281028444C9090907C4464AD
:106FF000544C440008364100000077000000413640
:10700000080002010204023C2623263C1EA1A161C5
:10701000123A4040207A38545455592155557941F7
:107020002154547841215554784020545579400CCE
:107030001E527212395555555939545454593955AF
:107040005454580000457C410002457D42000145F2
:107050007C40F0292429F0F0282528F07C5455455F
:10706000002054547C547C0A097F493249494932F2
:107070003248484832324A4848303A4141217A3A07
:1070800042402078009DA0A07D39444444393D40D1
:1070900040403D3C24FF2424487E4943662B2FFC7E
:1070A0002F2BFF0929F620C0887E0903205454792C
:1070B000410000447D413048484A32384040227AFD
:1070C000007A0A0A727D0D19317D2629292F28267A
:1070D0002929292630484D40203808080808080882
:1070E0000808382F10C8ACBA2F102834FA00007BDB
:1070F000000008142A142222142A1408AA00550099
:10710000AAAA55AA55AA000000FF00101010FF00FF
:10711000141414FF001010FF00FF1010F010F014F2
:107120001414FC001414F700FF0000FF00FF1414F7
:10713000F404FC141417101F10101F101F14141443
:107140001F00101010F0000000001F101010101F82
:1071500010101010F010000000FF10101010101090
:10716000101010FF10000000FF140000FF00FF00CF
:10717000001F10170000FC04F41414171017141447
:10718000F404F40000FF00F714141414141414F79A
:1071900000F7141414171410101F101F141414F4F3
:1071A000141010F010F000001F101F0000001F143A
:1071B000000000FC140000F010F01010FF10FF148D
:1071C0001414FF141010101F00000000F010FFFF37
:1071D000FFFFFFF0F0F0F0F0FFFFFF000000000005
:1071E000FFFF0F0F0F0F0F38444438447C2A2A3E0C
:1071F000147E02020606027E027E02635549416346
:107200003844443C04407E201E2006027E0202993F
:10721000A5E7A5991C2A492A1C4C7201724C304AD8
:107220004D4D303048784830BC625A463D3E494961
:1072300049007E0101017E2A2A2A2A2A44445F4409
:107240004440514A444040444A51400000FF010339
:10725000E080FF000008086B6B0836123624360603
:107260000F090F0600001818000000101000304031
:10727000FF0101001F01011E00191D1712003C3CF7
:107280003C3C000000000000000000000000000086
:10729000C3500D00B9500D00AF500D00A5500D00AA
:1072A00099500D008D500D0081500D0079500D004A
:1072B0006F500D0065500D00E55C0D0000000000F2
:1072C00000000000E1500D00E3500D000008101810
:1072D000202830386E616E006F7666002E00696E71
:1072E0006600626175640053657269616C00536584
:1072F0007269616C31007479706500706172616DE2
:1073000000636D6400696400686E64007374726D7C
:107310000066696C74006C766C0061646448616E30
:10732000646C65720072656D6F766548616E646C41
:10733000657200656E756D48616E646C6572730090
:107340004A534F4E53747265616D4C6F6748616E5E
:10735000646C6572006170700025303130752000FA
:107360005D20002564002C200028293A2000205BA5
:1073700000636F6465203D200025690064657461C9
:10738000696C73203D20000D0A006C6E00666E0073
:10739000636F64650064657461696C006E6F6E652F
:1073A00000747261636500696E666F007761726E6A
:1073B000006572726F720070616E696300616C6C5F
:1073C000005A00252B3033643A2530327500255998
:1073D0002D256D2D25645425483A254D3A255325F4
:1073E0007A0061736374696D65000000000000003D
:1073F00000000000F1560D00E1560D00E3560D00AF
:107400000000000000000000C9570D0019580D00D1
:1074100027580D0011530D0005580D00CB570D00D6
:10742000E1570D0013580D00F7570D00C5570D001B
:107430000000000000000000D5580D0025590D0087
:1074400033590D0011530D00E9580D000B590D0073
:10745000F7580D001F590D00D7580D00DB580D00CF
:107460000000000000000000D9590D00235A0D0053
:10747000FB590D00DB590D00035A0D000B5A0D008E
:10748000135A0D001B5A0D00000000000000000000
:10749000E35A0D00D95A0D00CF5A0D00C55A0D0000
:1074A000B95A0D00AD5A0D00A15A0D00995A0D00A0
:1074B0008F5A0D00855A0D00E55C0D00000000009C
:1074C000000000005F5C0D00555C0D004B5C0D0082
:1074D000015C0D003F5C0D00335C0D00275C0D006E
:1074E0001F5C0D00155C0D000B5C0D00E55C0D00D4
:1074F00000000000000000007D5C0D00875C0D00B6
:10750000915C0D009B5C0D00A55C0D00B15C0D0055
:10751000BD5C0D00C95C0D00D15C0D00DB5C0D0095
:10752000E55C0D000000000000000000000000000D
:10753000000000000000000000000000000000004B
:10754000000000000000000000000000000000003B
:10755000000000000000000000000000000000002B
:10756000000000000000000000000000000000001B
:10757000000000000000000000000000000000000B
:1075800000000000000000004300000061410D0009
:1075900079480D00F74B0D00CD500D00A5520D00A0
:1075A000E9520D006D550D007D550D00B5550D00CE
:1075B000B15B0D00695C0D00B15D0D00D55F0D0084
:1075C00059600D001D610D00E1610D00000000001B
:0475D00000000000B7
:1075D400E8030000000103070F1F3F7F0080C0E0A5
:1075E400F0F8FCFE000000000000000000000000B5
:1075F4000000000000000000000000000000000087
:107604000000000000000000000000000000000076
:107614000000000000000000000000000000000066
:1076240000000080808000000000000000000000D6
:1076340000000000008080C0C000000000000000C6
:107644000000000000000000000000000000000036
:107654000000000000000000000000000000000026
:107664000000000000000000000000000000000016
:10767400000000000000000080C0E0F0F8FCF8E02A
:1076840000000000000000000000000000000000F6
:1076940000808080808000808000000000808080E6
:1076A400808000FFFFFF00000000808080800000D9
:1076B4008080000080FFFF808000808000808080C8
:1076C400800080800000000000808000008C8E8498
:1076D400000080F8F8F880000000000000000000BE
:1076E40000000000F0F0F0F0F0F0F0F0F0F0F0F056
:1076F400E0E0C08000E0FCFEFFFFFF7FFFFFFFFF34
:10770400FF0000000000000000000000000000FE78
:10771400FFC70101010183FFFF00007CFEC70101D7
:10772400010183FFFFFF0038FEC78301010183C706
:10773400FFFF000001FFFF010100FFFF070101013E
:1077440000007FFF80000000FFFF7F0000FFFFFFBD
:10775400000001FFFFFF0100000000000000000026
:1077640000000000030F3F7F7FFFFFFFFFFFFFFFCD
:10777400E7C7C78F8F9FBFFFFFC3C0F0FFFFFFFFA7
:10778400FFFCFCFCFCFCFCFCFCF8F8F0F0E0C000A6
:1077940001030303030301030300000000010303C7
:1077A40003030101030100000001030303030101BA
:1077B40003030000000303000000030300000000B3
:1077C400000000010303030303010000000103019F
:1077D400000000030301000000000000000000009E
:1077E4000000000000000080C0E0F0F9FFFFFFFF90
:1077F400FF3F1F0F87C7F7FFFF1F1F3DFCF8F8F877
:10780400F87C7DFFFFFFFFFFFFFFFF7F3F0F0700B7
:107814003030000000000000000000000000000004
:107824000000000000000000FEFEFC00000000005C
:107834000000000000000000000000000000000044
:1078440000E0C00000000000000000000000303034
:107854000000000000000000000000000000000024
:107864000000000000C0FEFFFFFFFFFFFFFFFFFF5F
:107874007F7F3F1F0F071F7FFFFFF8F8FFFFFFFF0A
:10788400FFFEF8E00000000100000000000000001E
:10789400FEFE000000FCFEFC0C06060EFCF80000D8
:1078A400F0F81C0E0606060CFFFFFF0000FEFE00AB
:1078B400000000FCFEFC00183C7E66E6CE8400005E
:1078C40006FFFF0606FCFEFC0C0606060000FEFE94
:1078D4000000C0F8FC4E4646464E7C7840183C7684
:1078E400E6CECC8000000000000000000000000094
:1078F400000000000000000001070F1F1F3F3F3F72
:107904003F1F0F0300000000000000000000000003
:107914000F0F0000000F0F0F000000000F0F0000FA
:1079240003070E0C18180C060F0F0F0000010F0EA2
:107934000C180C0F070100040E0C180C0F070000A4
:10794400000F0F00000F0F0F0000000000000F0FCA
:1079540000000007070C0C181C0C060600040E0C93
:10796400180C0F07000000000000000000000000D9
:107974000000000000000000000000000000000003
:1079840000000000000000000000000000000000F3
:1079940000000000000000000000000000000000E3
:1079A40000000000000000000000000000000000D3
:1079B40000000000000000000000000000000000C3
:1079C40000000000000000000000000000000000B3
:1079D40000000000000000000000000000000000A3
:1079E40000000000E2730D000000000028750D0087
:1079F40048750D0068750D000000000000000000CF
:107A0400000000000000000088750D000000000068
:107A14000000000000000000000000000000000062
:107A24000000000000000000000000000000000052
:107A34000000000000000000000000000000000042
:0C7A4400000000000000000040E30320F0
:107A5000FFFFFFFF00000102030405060708090AF3
:107A60000B0C0D0E0F101112131415161718191AEE
:087A70001B1C1D1E1F20280035
:047A780078563412F6
:04000003D0004020C9
:00000001FF
