:02000002D0002C
:1040000000400D0004790D00000006000C000501C1
:0840100004014E040000000051
:10401800906B0D0009480A49884208B505D0094A3D
:10402800824202D0121A02F06BFD0748074A0021AB
:10403800121A02F070FD014808BD00BF2CDF0320F2
:1040480060740D00A8E30320A8E30320F0E7032031
:1040580070B501F0E5FA074C074BE41AA4080025EF
:104068001E46A54204D056F8253098470135F8E792
:1040780070BD00BF60740D0020740D0000F020B802
:1040880008B500F085F8BDE8084001F097BA01F0DE
:104098001FB801F01DB8000008B5034A00210C2024
:1040A80000F08AFFFEE700BFB14D0D000078B0FABE
:1040B80080F0400970470123037070477047000083
:1040C80010B501F083FB0D4C4FF4165101F072FB53
:1040D80001F09AFE01F048FC3C220221204600F043
:1040E800C1FA204600F004FC204600F08BFB044B8C
:1040F800BDE81040186801F023BA00BFACE3032004
:104108002CDF032010B5204C204600F0F1FB2046A0
:1041180000F078FB002211462046012300F000FA47
:104128002046012300227F2100F0FAF920460123CE
:104138003F22002100F0F4F901233F2220467F218D
:1041480000F0EEF92046012100F094FD20460121FF
:1041580000F095FD1E2220461B2100F088FD0B492A
:10416800204601F0B9F84FF47A7001F0E9F92046D9
:1041780000F048FB4FF47A7001F0E2F92046BDE800
:10418800104000F03FBB00BFACE30320A46B0D0060
:1041980038B50E2001F0DCFD054601F017FB04469A
:1041A800284602F0F1F80AA3D3E9002302F052F9F5
:1041B80002F048FC02F0FAF841EC100B204602210C
:1041C80001F0A0F9BDE83840FFF79CBFAFF30080CD
:1041D800051450400105743F10B50446FFF757FF1A
:1041E800204610BD10B5074C00F066FD4FF0FF31BA
:1041F800204600F0DFF92046034A0449BDE8104094
:1042080001F022BEACE30320A8E30320C5400D0063
:10421800F0B5447EBDF81450022C08D0032C0FD002
:10422800012C70D10489013CA21A12B20CE0448915
:10423800013CA21A0489E41A611A12B209B262E0B6
:104248004489E41A611A09B2002A5BDBB0F9084014
:10425800944240F390800029BEBF5B181BB2002136
:10426800B0F90A00CC188442C4BF431A1BB2002B11
:1042780040F38180C9B2C8083F4F02EBC01211F069
:104288000701DBB207EB020417D0C1F10801C8B27D
:104298003A4983420E5C3FBFC3EB000EFF2141FA4F
:1042A8000EF10E40B95C012D0CBF3143B14383427E
:1042B800B95460D3181AC3B28034072B17D9012D0B
:1042C8000CBFFF20002004F180011A46083AD2B240
:1042D800072A01F8800C01F18001F7D8A3F1080240
:1042E800C2F3C402013204EBC21403F00703002B2B
:1042F80041D0234AD25C2378012D0CBF134393434A
:104308002370F0BDF0BD002A35DBB0F90A409442B5
:1043180031DD0029BCBFC9180BB2B0F90870B8BFAD
:104328000021CE18BE42C4BF631A1BB2002B22DD87
:10433800D01001EBC011104802F00702014401201F
:1043480000FA02F28542D2B209D1013B1BB25C1CD1
:1043580011D011F8010B104301F8010CF5E7D24315
:10436800D2B2013B1BB2581C05D011F8010B10400A
:1043780001F8010CF5E7F0BD40DF032038DF03202A
:1043880030DF0320F0B5447EBDF81450022C08D06D
:10439800032C0FD0012C12D10489E41AA21A12B2EC
:1043A8006DE00489013C611A4489E41AA21A09B231
:1043B80012B204E04489013C611A09B25FE00029A5
:1043C8005CDBB0F908408C4240F39180002ABCBF06
:1043D800D21813B2B0F90A00B8BF0022D418844228
:1043E800C4BF831A1BB2002B40F38180D4B2404E65
:1043F800DAB2E30801EBC31114F0070406EB01037A
:1044080017D0C4F10804E0B23A4C8242275C3FBF9F
:10441800C2EB000EFF2444FA0EF42740745C012D11
:104428000CBF3C43BC438242745460D3101AC2B2DE
:104438008033072A17D9012D0CBFFF24002403F16C
:10444800800011460839C9B2072900F8804C00F1EC
:104458008000F7D8A2F10801C1F3C401013103EBD0
:10446800C11302F00702002A41D02349895C1A7857
:10447800012D0CBF0A438A431A70F0BDF0BD002914
:1044880035DBB0F90A408C4231DD002ABCBFD218B6
:1044980013B2B0F90870B8BF0022D618BE42C4BF24
:1044A800A31A1BB2002B22DDC81002EBC012104861
:1044B80001F007011044012202FA01F19542C9B244
:1044C80009D15A1E13B25C1C11D010F8012B0A43F3
:1044D80000F8012CF5E7C943C9B25A1E13B25A1C99
:1044E80005D010F8012B0A4000F8012CF5E7F0BDC3
:1044F80040DF032038DF032030DF032010B42AB167
:10450800194606485DF8044B00F0AABE0122C9B25C
:10451800C0B25DF8044B01F032BC00BF14E70320C1
:10452800F8B50D1E064614461F463FDB00F0ACFBEF
:1045380085423BDA002C39DB304600F0A8FB844288
:1045480034DA304600F09EFB022827D13189708981
:1045580001390138491B001B0DB204B206E00128DD
:1045680004D13389013B1B1B2C461DB20820012FA7
:1045780094FBF0F000B20E4B04F0070205EBC011FB
:1045880004D197405A5C17435F54F8BD585C012723
:1045980007FA02F220EA02025A54F8BD0328DED1D3
:1045A8007389013B5B1B25461CB2DFE7F8BD00BFE2
:1045B80040DF032038B5402204460D46802100F034
:1045C80077FA064B2360FF23637784F82130E3777B
:1045D800A37784F82050204638BD00BFBC6B0D007F
:1045E80038B590F91D30013304460D4622D090F9B4
:1045F8002100012180B201F092FB94F91F000021F3
:1046080080B201F08CFB94F92100002180B201F006
:1046180086FB94F91E1094F91D0094F822202B466D
:10462800FFF76CFF94F92100012180B2BDE8384002
:1046380001F075BB01F0E8FB94F91B1001F09EF93D
:1046480001F0E2FB036800219B68984701F0DCFB5E
:10465800036829469B68984701F0D6FBBDE83840B7
:1046680001F093B938B504460D46217790F91D300D
:10467800C276013333D090F91F00012180B201F0D6
:104688003DFB94F92100012180B201F037FB94F839
:1046980022305BB994F91D00012180B201F02EFB94
:1046A80094F91E00012180B201F028FB94F8223011
:1046B800CBB194F92100012180B201F030FB012136
:1046C8004F4800F06CFD10214D4800F0B5FD002169
:1046D8004B4800F067FD4A4800F05CFD03E001F03C
:1046E80093FB01F041F994F92000012180B201F017
:1046F80005FB94F92000012180B201F010FB012094
:1047080000F01EFF94F92000002180B201F007FBA1
:104718000A2000F015FF94F92000012180B201F071
:10472800FEFA2046AE21FFF75BFF2046D521FFF7B2
:1047380057FF20468021FFF753FF2046A821FFF7A7
:104748004FFF20463F21FFF74BFF2046D321FFF7BD
:1047580047FF20460021FFF743FF20464021FFF78F
:104768003FFF8D212046FFF73BFF012D0CBF102195
:1047780014212046FFF734FF20462021FFF730FFA1
:1047880020460021FFF72CFF2046A121FFF728FF34
:104798002046C821FFF724FF2046DA21FFF720FF33
:1047A80020461221FFF71CFF81212046FFF718FF42
:1047B800012D0CBF9F21CF212046FFF711FFD921E2
:1047C8002046FFF70DFF012D0CBF2221F1212046C5
:1047D800FFF706FF2046DB21FFF702FF20464021B6
:1047E800FFF7FEFE2046A421FFF7FAFE2046A62189
:1047F800FFF7F6FE2046AF21BDE83840FFF7F0BED0
:1048080014E703202DE9F04121210446FFF7E8FED3
:1048180000212046FFF7E4FE7F212046FFF7E0FE57
:1048280022212046FFF7DCFE00212046FFF7D8FEB4
:1048380007212046FFF7D4FE94F91D30DFF8AC803D
:1048480001332ED094F92100012180B201F067FADA
:1048580094F91F00012180B201F061FA94F9210056
:10486800002180B201F05BFA012000F09DFA0025DA
:1048780018F8053094F8222094F91E1094F91D00B8
:104888000135FFF73BFEB5F5806FF1D1012000F04F
:104898008BFA94F92100012180B2BDE8F04101F0C2
:1048A8003EBA002501F0B0FA94F91B1001F066F841
:1048B80001F0AAFA036840219B689847002601F096
:1048C800A3FAAF190368BFB29B6818F8071001363E
:1048D8009847102EF3D1103501F096FAADB201F0D9
:1048E80054F8B5F5806FDDD1BDE8F08140DF0320D5
:1048F8004FF480620021014802F00DB940DF032027
:1049080000F0DAB92DE9F04F85B01E46BDF9383010
:10491800BDF83CA015469A1A002AB8BF5242009228
:10492800721A002AB8BF524201920C46009A0199A5
:104938008A42814605DD32461E46134622462C46EB
:104948001546B44205DD2A461D461346224634461E
:1049580016465A1B002AB8BF5242C4EB06089D42AD
:10496800B4BF01234FF0FF331FFA88F80293039274
:104978000FFA88F7022297FBF2F7B4421FDC019A7C
:10498800009B9342D9F80030C8BF2246D3F810B034
:10499800C8BF29465346DCBF2A4621464846D84761
:1049A800039BFF1ABBB21FB2002F05DA029A08EB6D
:1049B800030715442DB23FB2013424B2DDE705B038
:1049C800BDE8F08F2DE9F347BDF82C600768BDF905
:1049D80028A000960446FF6991460D469846B847B8
:1049E800236800960AF1FF324A44DF6929464346A4
:1049F800204612B2B847236800969F694A46534634
:104A080029462046B84723680A9608F1FF31294409
:104A18009D694A46534609B22046AC4602B0BDE8F5
:104A2800F047604737B5013B13440468BDF8185098
:104A380001951BB2009364690B46A04703B030BDD3
:104A480037B5BDF8185004688DE82400013B0B44C5
:104A580064691BB2A04703B030BD2DE9F347BDF927
:104A68002880BDF82C90054617460C4601EB030A32
:104A780054450BDA2B68CDF800909E6921464346D1
:104A88003A4628460134B04724B2F1E702B0BDE8FF
:104A9800F08713B5B0F90E20046801910092002246
:104AA800B0F90C30646A1146A04702B010BD7047D7
:104AB80030B501810024084D42818181C2814FF6C1
:104AC800FF710122446005604476048244820276C4
:104AD800C1828182827630BDF46B0D002DE9F04FE2
:104AE8008FB005460691BDF860100791BDF86410B7
:104AF8000891B0F90C1006989DF8688081427CDD19
:104B0800B5F90E10914278DD062111FB0800002846
:104B180073DD02EBC80000286FDD03EB830396B258
:104B28000C9306F108039BB2099100240D93052C00
:104B38001CBF334B0C9A059616BF1B194FF0000982
:104B480013F8029004961FFA88F30393039ABDF8AA
:104B5800183004FB023213FA84F312B21BB20A9221
:104B680037460FFA88FA0B9319F0010F11D0B8F1F4
:104B7800010F2B6803D1D3F810B0079B14E0079AF4
:104B88000192CDF800A0D3F824B0BDF91020534607
:104B980018E0079B089A934217D0B8F1010F2B68C9
:104BA80007D1D3F810B013463AB20B992846D84724
:104BB8000BE0089A0192CDF800A0BDF91420D3F8B3
:104BC80024B053460A992846D847049B039A1344AD
:104BD8009BB20493059B13449BB2013705930D9B2D
:104BE800BFB29F424FEA5909BED1099B013B01342C
:104BF80013F0FF0364B2099399D10FB0BDE8F08FA9
:104C0800246C0D0030B50A2985B004460B4604D142
:104C1800027E438A03EBC20323E00D2924D0057EDC
:104C2800B0F91220B0F910100295C58A0195858A4D
:104C38000095FFF753FF227E238A91B201EB4100D2
:104C480003EB4003A07E1BB2238268B1B4F90C00C9
:104C58006FF0050505FB0202934205DD638A03EB4D
:104C6800C103638200232382012005B030BD018285
:104C780042827047002908BF012101767047C1822E
:104C880081827047407E7047B0F90C007047B0F9D8
:104C98000E00704700F010B808B5024B1B689B68FF
:104CA800019308BD6802030008B5024B1B68DB6866
:104CB800019308BD6802030008B5024B1B681B6816
:104CC800019308BD2C02030008B5024B1B685B6802
:104CD800019308BD2C02030008B5024B1B689B68B2
:104CE800019308BD2C02030008B5024B1B68DB6862
:104CF800019308BD2C02030008B5024B1B681B6911
:104D0800019308BD2C02030008B5024B1B681B6BFE
:104D1800019308BD2C02030008B5024B1B681B68F1
:104D2800019308BD3002030008B5024B1B689B685D
:104D3800019308BD3002030008B5024B1B68DB680D
:104D4800019308BD3002030008B5024B1B681B69BC
:104D5800019308BD3002030008B5024B1B685B696C
:104D6800019308BD3002030008B5024B1B68DB69DC
:104D7800019308BD3002030008B5024B1B681B6A8B
:104D8800019308BD3002030008B5024B1B685B6A3B
:104D9800019308BD3002030008B5024B1B685B682D
:104DA800019308BD1802030008B5024B1B68DB68B5
:104DB800019308BD1802030008B5024B1B685B6924
:104DC800019308BD1802030008B5024B1B689B68D5
:104DD800019308BD4802030008B5024B1B681B6914
:104DE800019308BD4802030008B5024B1B685B69C4
:104DF800019308BD4802030008B5024B1B681B6BF2
:104E0800019308BD4802030008B5024B1B685B6CA0
:104E1800019308BD4802030008B5024B1B685B6993
:104E2800019308BD6402030008B5024B1B681B68A8
:104E3800019308BD3C02030008B5024B1B68DB6800
:104E4800019308BD3C02030008B5024B1B681B69AF
:104E5800019308BD3C02030008B5024B1B685B695F
:104E6800019308BD3C02030008B5024B1B689B690F
:104E7800019308BD3C02030008B5024B1B68DB69BF
:104E8800019308BD3C02030008B5024B1B681B6A6E
:104E9800019308BD3C02030008B5024B1B689B6ADE
:104EA800019308BD3C02030008B5024B1B68DB6890
:104EB800019308BD2802030008B5024B1B689B69D3
:104EC800019308BD2802030008B5024B1B68DB6983
:104ED800019308BD2802030008B5024B1B681B6A32
:104EE800019308BD2802030008B5024B1B685B6AE2
:104EF800019308BD2802030008B5024B1B689B6A92
:104F0800019308BD2802030008B5024B1B68DB6A41
:104F1800019308BD2802030008B5024B1B681B6BF0
:104F2800019308BD2802030008B5024B1B685B6BA0
:104F3800019308BD2802030008B5024B1B681B6CCF
:104F4800019308BD2802030008B5024B1B681B68C3
:104F5800019308BD4C02030008B5024B1B685B684F
:104F6800019308BD4C02030008B5024B1B681B697E
:104F7800019308BD4C02030008B5024B1B685B692E
:104F8800019308BD4C02030008B5024B1B689B69DE
:104F9800019308BD4C02030008B5024B1B68DB698E
:104FA800019308BD4C02030008B5024B1B681B6A3D
:104FB800019308BD4C02030008B5024B1B685B6BEC
:104FC800019308BD6002030008B5024B1B685B68CB
:104FD800019308BD2002030008B5024B1B685B69FA
:104FE800019308BD2002030008B5034B1B68D3F8E2
:104FF8008830019308BD00002002030008B5034B68
:105008001B68D3F89430019308BD00002002030008
:1050180008B5024B1B685B68019308BD400203009A
:1050280008B5024B1B689B68019308BD400203004A
:1050380008B5024B1B68DB68019308BD40020300FA
:1050480008B5024B1B681B69019308BD40020300A9
:1050580008B5024B1B685B69019308BD4002030059
:1050680008B5024B1B689B69019308BD4002030009
:1050780008B5024B1B68DB69019308BD40020300B9
:1050880008B5024B1B681B6A019308BD4002030068
:1050980008B5024B1B681B6B019308BD4002030057
:1050A80008B5024B1B685B6B019308BD4002030007
:1050B80008B5024B1B68DB6B019308BD4402030073
:1050C80008B5024B1B681B68019308BD1C0203004E
:1050D80008B5024B1B685B68019308BD1C020300FE
:1050E800002211464068FFF7CBBF002211464068F6
:1050F800FFF7D6BF00224068FFF7CABF002281F041
:1051080001014068FFF7B4BF00231A4619464068FA
:10511800FFF7A6BF00231A4619464068FFF798BF55
:10512800002211464068FFF78BBF002211464068F5
:10513800FFF776BF002202214068FFF779BF0023FE
:105148001A464068FFF764BF024B03225A60024ABE
:105158001A607047D0E3032028710D00704710B51E
:105168000446FEF794FF204610BD000070B5084BBA
:105178000360044600250E4640F80C5FFFF73CFE2E
:1051880030462671FFF7F0FDA560204670BD00BFD0
:105198005C710D004FF6FF710079FFF7BDBD007916
:1051A800FFF7C2BD0079FFF7C7BD0000054A00231D
:1051B800995C814202D00133082BF9D1581CC0B246
:1051C800704700BF64710D00400830B518600024B6
:1051D80018688842E5B206D90134082C02D0400884
:1051E8001860F5E70725024B5B5D137030BD00BF03
:1051F80064710D0070B588B0067902FB01F50446AC
:105208001422002103A801F086FC0B2303A93046D1
:105218000022ADF80C30FFF7B7FD02AB0DF1070225
:1052280029460498FFF7D0FF20799DF80710FFF76B
:105238008BFD029808B070BD38B504460846A568CD
:105248004DB1FFF7B3FF012225FA00F12046BDE872
:105258003840FFF7CFBF2079BDE83840FFF774BD6D
:1052680008B50079FFF778FDC0B208BD0079FFF7EF
:1052780083BD0000044B00204FF6FF721870588061
:105288009A80FFF7A1BE00BFD8E30320F8B5064611
:105298000D468F180024BD420CD0336815F8011B49
:1052A8009B6830469847002801DB0444F3E7002C4C
:1052B80008BF04462046F8BD70B505460C460846AA
:1052C80049B101F059FC2B68024621462846DB68A3
:1052D800BDE87040184770BD08B5FFF7EDFF08BD81
:1052E80003689B68184738B50D210546FFF7F8FF96
:1052F8000A2104462846FFF7F3FF204438BD30B59D
:105308008BB00B4600218DF82410012A98BF0A2281
:105318000DF12304B3FBF2F505FB123303F0FF0391
:10532800092B94BF30333733DBB2214604F80139F7
:105338002B46002DEED1FFF7BFFF0BB030BD10B4E8
:105348002AB903685DF8044B9B68C9B21847D2B202
:105358005DF8044BFFF7D3BFFFF7F1BF2DE9F0412C
:1053680007460E4615462AB90368C9B29B68BDE8C8
:10537800F04118470A2A02D1002901DA04E0D2B222
:10538800BDE8F041FFF7BBBF2D21FFF7A9FF2A4673
:10539800044671423846FFF7B2FF2044BDE8F08169
:1053A8002DE9F04757EC106B82460D4610EE102A97
:1053B8003B4610EE100A394601F0E6FA08B14849B2
:1053C80012E027F000494FF0FF32464B304649467D
:1053D80001F0DAFA68B94FF0FF32424B30464946DD
:1053E80001F0B4FA28B940495046FFF765FFBDE817
:1053F800F0874FF060423D4B3046394601F0BAFA2B
:1054080008B13B49F0E74FF060423A4B3046394625
:1054180001F092FA0028F4D10022002330463946E0
:1054280001F08AFA40B12D215046FFF759FF07F1E4
:10543800004304461F4600E004462F494FF0000889
:1054480000205FFA88F39D4206D900222B4B01F019
:105458002BF908F10108F4E732463B4600F048FE14
:105468000F46064601F0CEFA0A220146804650460B
:10547800FFF745FF04447DB3404600F075FF024640
:105488000B463046394600F031FE06460F46504678
:105498001B49FFF711FF0444184B002230463946D8
:1054A80000F0D8FF0F46064601F084FA0A220146AA
:1054B80080465046FFF752FF0444404600F064FF20
:1054C80002460B463046394600F010FE013D15F005
:1054D800FF0506460F46DFD12046BDE8F08700BF2E
:1054E8006C710D00FFFFEF7F76710D00FFFFEF413C
:1054F80070710D00FFFFEFC10000E03F0000244085
:1055080074710D0038B5C9B20546FFF749FF044666
:105518002846FFF7E8FE204438BD0000014B024A48
:105528001A607047E0E3032030720D00024B1A68DE
:10553800024B1A60704700BF40E30320E4E30320F6
:105548000021FFF749BD10B58368044613B1032253
:1055580001469847204610BD10B50446FFF7F3FFF3
:10556800204610BD0348044A04490023836000F024
:105578006BBC00BFE8E30320A8E3032061550D00DE
:1055880008B50C4B33B100F021F903681B69984743
:10559800002809DC084B63B100F082F903681B6935
:1055A8009847002803DC08BDAFF30080F2E7AFF3AB
:1055B800008008BD000000000000000008B5FFF7EB
:1055C800DFFFFFF7F9FB014B186008BD34E7032044
:1055D80007B5002300931A466FF07701FFF70EFD19
:1055E80003B05DF804FB000007B543880A2B08D018
:1055F800502B09D1094B1B683BB103B05DF804EB94
:105608001847FFF7E5FF06E0002300931A466FF0FE
:105618007701FFF7F3FC03B05DF804FBF8E3032020
:1056280010B5FFF7B9FB044601F07EFA074B13B13A
:105638002046AFF3008000210448FFF739FD002120
:105648000348BDE81040FFF7CFBC00BF00000000D2
:10565800F1550D00704710B50446FEF718FD2046B9
:1056680010BDF0B5037D062B8DB00E4600F1040782
:105678004FF0000402D000F1080518E00CAD3946DF
:1056880005F8304D2F232A460A20FFF7C5FB284688
:1056980001F072FA33680246DB68294630469847BB
:1056A8000FE024B12E213046FFF71AFE044415F806
:1056B800011D0A223046FFF74FFEBD420444F0D1D7
:1056C80020460DB0F0BD000010B5054B0446112270
:1056D80040F8043B002101F01EFA204610BD00BF2F
:1056E8008C720D000346074A10B543F8042B01F1EC
:1056F800100251F8044B43F8044B9142F9D10A784F
:105708001A7010BD8C720D0010B59DF8084044EA5F
:10571800032343EA024242EA01610423416003751C
:1057280010BD37B50D788B784A78C978009129462D
:10573800FFF7EAFF03B030BD41747047704700219E
:10574800007CFFF721BC0121007CFFF71DBC007C19
:10575800FFF712BC007CFFF707BC38B50446007C95
:105768000D46FFF709FC002801DC607C20B12946C2
:10577800207CFFF711FC012038BD007CFFF714BC2A
:1057880010B50446FEF783FC204610BD10B504464C
:10579800002363604FF47A73A360054B23600123F1
:1057A8000846217463741146FFF7CEFB204610BDEE
:1057B800A0720D000022007CFFF7CEBB10B51422AA
:1057C8000446002101F0A7F9204610BD30B50E4D62
:1057D80087B001A8FFF7F2FF296811F0010410D182
:1057E8002846FEF763FC60B101AA21460748FFF787
:1057F800CDFF2846FEF75FFC054A0649034800F03E
:1058080023FB024807B030BDFCE3032000E403207B
:10581800A8E3032045570D00704741747047007C8A
:10582800FFF73ABB007CFFF70FBB007CFFF71CBB00
:10583800007CFFF711BB007CFFF71EBB10B50446C8
:10584800FEF725FC204610BD70B5457C04460E4683
:1058580025B9007CFFF720FB002805DD3146207CB8
:10586800BDE87040FFF7E8BA284670BD10B5044699
:1058780008461146002262604FF47A72A260054A17
:1058880022600122207462741A46FFF7CDFA20467E
:1058980010BD00BFD0720D00007CFFF7F5BA000004
:1058A80038B50C4D296811F0010411D12846FEF7CE
:1058B800FDFB68B1084A094B09482146FFF7D6FFA6
:1058C8002846FEF7F8FB074A0749054800F0BCFAE6
:1058D800034838BDACE40320B0E4032028E40320E7
:1058E80014E40320A8E3032021580D007047F8B5FD
:1058F800064615460C468F18BC4206D0336814F885
:10590800011B9B6830469847F6E72846F8BD0022F9
:10591800007CFFF7E1BA0021007CFFF7E5BA00211F
:10592800007CFFF7E9BA0021007CFFF7EDBA0021FF
:10593800007CFFF7F1BA10B50446FEF7A8FB204635
:1059480010BD000010B504464FF47A730846A360F2
:105958000021044B207461602360FFF7EDFA2046B4
:1059680010BD00BF00730D0000231A461946007CC5
:10597800FFF79ABA0022007CFFF79EBAC9B2FFF778
:10598800F9BF0022007CFFF79FBA0121FFF7F9BF9A
:105998000021007CFFF7C8BA002211464068FFF7D3
:1059A8006FBB002211464068FFF77ABB00224068AF
:1059B800FFF76EBB002281F001014068FFF758BB7A
:1059C80000231A4619464068FFF74ABB00231A46C7
:1059D80019464068FFF73CBB002211464068FFF7B4
:1059E8002FBB002211464068FFF71ABB0022022194
:1059F8004068FFF71DBB00231A464068FFF708BB45
:105A080038B5054678B1046844B1A3681BB10322D0
:105A18002146204698472046FEF739FB2846BDE830
:105A28003840FEF734BB38BD10B103685B681847CF
:105A3800704710B503680446BBB15868FFF7C4F94E
:105A480078B923685A7C12B95868FFF7C5F92368F2
:105A58005868FFF7C9F920680023236028B1FFF7C9
:105A6800CFFF206808B1FFF7CBFF204610BD00002C
:105A780038B50B4B03600446D0F8CC0108B1FEF7EB
:105A880008FBD4F8C4512DB12846FFF7D2FF2846A9
:105A9800FEF7FDFAA06808B1FFF7C6FF204638BD3B
:105AA80028730D0038B50D4C0D4B236000250223DB
:105AB80004F5E4706360A560C4F8C451C4F8C85123
:105AC800FFF7A2F9074BC4F8CC5123602046064AD9
:105AD8000649BDE8384000F0B7B900BF34E50320F7
:105AE80090730D0028730D00A8E30320795A0D0068
:105AF800002211464068FFF7A3BA00221146406809
:105B0800FFF7BEBA002211464068FFF7C9BA002263
:105B18004068FFF7BDBA002281F001014068FFF735
:105B2800A7BA00231A4619464068FFF799BA002316
:105B38001A4619464068FFF78BBA0022114640689A
:105B4800FFF76EBA002202214068FFF771BA0023FE
:105B58001A464068FFF75CBA024B04225A60024AB0
:105B68001A60704704E703205C730D0000231A468F
:105B78004068FFF74DBA002202214068FFF758BA83
:105B8800002211464068FFF74BBA002211464068D0
:105B9800FFF756BA00231A4619464068FFF758BA65
:105BA80000231A4619464068FFF75ABA002281F0C6
:105BB80001014068FFF75CBA00224068FFF768BA45
:105BC800002211464068FFF76BBA00221146406870
:105BD800FFF756BA2DE9F043002495B016460D4656
:105BE8000746FFF771FD214620220CA8009400F01B
:105BF80092FF40230C9321466B460CAA3046FFF7D0
:105C080053F80446002844D1024601216868FFF78A
:105C180017FA0221804622466868FFF711FA009EAB
:105C280081462146002E34D0002932D17368022BD8
:105C380002D00A2B09D02AE0B8F1000F27D07169E9
:105C480038460431FFF76DFD20E0B9F1000F1ED092
:105C58007469112201A800F05EFF06238DF8143044
:105C680001AD04F108031834186859682A4603C2BC
:105C78000833A3421546F7D101A906A807ADFFF7D7
:105C880031FD0FCD3C1D0FC42B6823700121F6692F
:105C9800C8E70098FFF700F8384615B0BDE8F0836C
:105CA800024B034A1A6000225A6070470CE703202F
:105CB80090730D0010B504460F48FFF7D7FA28B1C6
:105CC800A4F10B03022B01D8002010BD00F09CF8B2
:105CD800FFF75EFE08B1012CF6D9FFF7E1FDFFF7EB
:105CE800DBFD18B1A4F10903012BEDD9232C8CBFDE
:105CF8000020012010BD00BF14E70320232838B579
:105D080004460D460AD8FF2908D0FFF7D3FF28B16B
:105D180029462046BDE83840FEF7DEBF38BD38B515
:105D280004460D46FEF7E0FFFF2810D0062804D8E9
:105D38004D2323FA00F0C30709D42046FFF7BAFF22
:105D480028B129462046BDE83840FEF7D5BF38BD02
:105D58000D2810B504469CBF0E34A4B22046FFF7A8
:105D6800A9FF50B103212046FEF7AEFF032804D156
:105D78002046BDE81040FEF7C7BF002010BD2DE942
:105D8800F04190461E46072407460D46B8F1000F1D
:105D980004D1C4F1070146FA01F101E046FA04F121
:105DA80001F001013846FFF7BAFF01212846FFF745
:105DB800B6FF00212846FFF7B2FF14F1FF34E5D201
:105DC800BDE8F08170B50C4C0C4E0D4D00212046FD
:105DD800FFF7CCF920460B4C3246294600F034F840
:105DE80001212046FFF7C2F9324629462046BDE880
:105DF800704000F029B800BF14E70320A8E303208F
:105E080065510D0024E7032038B50B4D296811F0C2
:105E180001040FD12846FEF749F958B12146074831
:105E2800FFF790FD2846FEF746F9054A054903485D
:105E380000F00AF8014838BD38E703203CE70320A2
:105E4800A8E30320F5580D000B460146184600F05C
:105E580049BE0000184B1A68D1075CBF01221A60BE
:105E6800164B1A68D2075CBF01221A60144B1A68D5
:105E7800D0075CBF01221A60124B1A68D1075CBFB9
:105E880001221A60104B1A68D2075CBF01221A60FF
:105E98000E4B1A68D0075CBF01221A600C4B1A68B7
:105EA800D1075CBF01221A600A4B1A68D2075CBF8F
:105EB80001221A60704700BF6CE7032068E70320DF
:105EC80064E7032060E703205CE7032058E703202A
:105ED80054E7032050E70320244B1A68D0075CBF1F
:105EE80001221A60224B1A68D1075CBF01221A608E
:105EF800204B1A68D2075CBF01221A601E4B1A6831
:105F0800D0075CBF01221A601C4B1A68D1075CBF1E
:105F180001221A601A4B1A68D2075CBF01221A6064
:105F2800184B1A68D0075CBF01221A60164B1A6812
:105F3800D1075CBF01221A60144B1A68D2075CBFF4
:105F480001221A60124B1A68D0075CBF01221A603E
:105F5800104B1A68D1075CBF01221A600E4B1A68F1
:105F6800D2075CBF01221A60704700BF9CE703207C
:105F780098E7032094E7032090E703208CE70320A9
:105F880088E7032084E7032080E703207CE70320D9
:105F980078E7032074E7032070E70320244B1A688E
:105FA800D0075CBF01221A60224B1A68D1075CBF78
:105FB80001221A60204B1A68D2075CBF01221A60BE
:105FC8001E4B1A68D0075CBF01221A601C4B1A6866
:105FD800D1075CBF01221A601A4B1A68D2075CBF4E
:105FE80001221A60184B1A68D0075CBF01221A6098
:105FF800164B1A68D1075CBF01221A60144B1A6845
:10600800D2075CBF01221A60124B1A68D0075CBF26
:1060180001221A60104B1A68D1075CBF01221A606E
:106028000E4B1A68D2075CBF01221A60704700BF86
:10603800CCE70320C8E70320C4E70320C0E7032018
:10604800BCE70320B8E70320B4E70320B0E7032048
:10605800ACE70320A8E70320A4E70320A0E7032078
:10606800184B1A68D1075CBF01221A60164B1A68D0
:10607800D2075CBF01221A60144B1A68D0075CBFB4
:1060880001221A60124B1A68D1075CBF01221A60FC
:10609800104B1A68D2075CBF01221A600E4B1A68AF
:1060A800D0075CBF01221A600C4B1A68D1075CBF8D
:1060B80001221A600A4B1A68D2075CBF01221A60D3
:1060C800704700BFECE70320E8E70320E4E703207C
:1060D800E0E70320DCE70320D8E70320D4E7032028
:1060E800D0E7032081F0004102E000BF83F00043C5
:1060F80030B54FEA41044FEA430594EA050F08BF5B
:1061080090EA020F1FBF54EA000C55EA020C7FEA1E
:10611800645C7FEA655C00F0E2804FEA5454D4EB9B
:106128005555B8BF6D420CDD2C4480EA020281EA65
:10613800030382EA000083EA010180EA020281EA9D
:106148000303362D88BF30BD11F0004F4FEA0131EF
:106158004FF4801C4CEA113102D0404261EB4101FE
:1061680013F0004F4FEA03334CEA133302D0524284
:1061780063EB430394EA050F00F0A780A4F1010440
:10618800D5F1200E0DDB02FA0EFC22FA05F280187A
:1061980041F1000103FA0EF2801843FA05F3594160
:1061A8000EE0A5F120050EF1200E012A03FA0EFCDF
:1061B80028BF4CF0020C43FA05F3C01851EBE37109
:1061C80001F0004507D54FF0000EDCF1000C7EEB26
:1061D80000006EEB0101B1F5801F1BD3B1F5001F64
:1061E8000CD349085FEA30004FEA3C0C04F1010483
:1061F8004FEA445212F5800F80F09A80BCF1004FAC
:1062080008BF5FEA500C50F1000041EB045141EA2D
:10621800050130BD5FEA4C0C404141EB010111F42E
:10622800801FA4F10104E9D191F0000F04BF0146D9
:106238000020B1FA81F308BF2033A3F10B03B3F1B7
:1062480020020CDA0C3208DD02F1140CC2F10C0247
:1062580001FA0CF021FA02F10CE002F11402D8BFA5
:10626800C2F1200C01FA02F120FA0CFCDCBF41EA71
:106278000C019040E41AA2BF01EB0451294330BD40
:106288006FEA04041F3C1CDA0C340EDC04F114041D
:10629800C4F1200220FA04F001FA02F340EA0300F4
:1062A80021FA04F345EA030130BDC4F10C04C4F13A
:1062B800200220FA02F001FA04F340EA030029461A
:1062C80030BD21FA04F0294630BD94F0000F83F464
:1062D800801306BF81F480110134013D4EE77FEA47
:1062E800645C18BF7FEA655C29D094EA050F08BF93
:1062F80090EA020F05D054EA000C04BF1946104674
:1063080030BD91EA030F1EBF0021002030BD5FEAB7
:10631800545C05D14000494128BF41F0004130BDDF
:1063280014F580043CBF01F5801130BD01F0004533
:1063380045F0FE4141F470014FF0000030BD7FEAA6
:10634800645C1ABF194610467FEA655C1CBF0B46A1
:10635800024650EA013406BF52EA033591EA030FB8
:1063680041F4002130BD00BF90F0000F04BF0021B0
:10637800704730B54FF4806404F132044FF00005E3
:106388004FF0000150E700BF90F0000F04BF00215C
:10639800704730B54FF4806404F1320410F00045C2
:1063A80048BF40424FF000013EE700BF42004FEABD
:1063B800E2014FEA31014FEA02701FBF12F07F433A
:1063C80093F07F4F81F06051704792F0000F14BF37
:1063D80093F07F4F704730B54FF4607401F000457B
:1063E80021F0004120E700BF50EA010208BF7047D2
:1063F80030B54FF000050AE050EA010208BF7047C7
:1064080030B511F0004502D5404261EB41014FF42F
:10641800806404F132045FEA915C3FF4DCAE4FF033
:1064280003025FEADC0C18BF03325FEADC0C18BF1A
:10643800033202EBDC02C2F1200300FA03FC20FA6B
:1064480002F001FA03FE40EA0E0021FA02F11444B8
:10645800C1E600BF70B54FF0FF0C4CF4E06C1CEACD
:1064680011541DBF1CEA135594EA0C0F95EA0C0F42
:1064780000F0DEF82C4481EA030621EA4C5123EAB5
:106488004C5350EA013518BF52EA033541F48011E4
:1064980043F4801338D0A0FB02CE4FF00005E1FB97
:1064A80002E506F00042E0FB03E54FF00006E1FBE1
:1064B80003569CF0000F18BF4EF0010EA4F1FF0424
:1064C800B6F5007F64F5407404D25FEA4E0E6D4164
:1064D80046EB060642EAC62141EA55514FEAC52075
:1064E80040EA5E504FEACE2EB4F1FD0C88BFBCF5F1
:1064F800E06F1ED8BEF1004F08BF5FEA500E50F1A2
:10650800000041EB045170BD06F0004646EA010167
:1065180040EA020081EA0301B4EB5C04C2BFD4EB99
:106528000C0541EA045170BD41F480114FF0000E92
:10653800013C00F3AB8014F1360FDEBF002001F000
:10654800004170BDC4F10004203C35DA0C341BDC7A
:1065580004F11404C4F1200500FA05F320FA04F04C
:1065680001FA05F240EA020001F0004221F0004180
:1065780010EBD37021FA04F642EB06015EEA430EF3
:1065880008BF20EAD37070BDC4F10C04C4F1200523
:1065980000FA04F320FA05F001FA04F240EA0200D6
:1065A80001F0004110EBD37041F100015EEA430EA7
:1065B80008BF20EAD37070BDC4F1200500FA05F2C7
:1065C8004EEA020E20FA04F301FA05F243EA020346
:1065D80021FA04F001F0004121FA04F220EA020055
:1065E80000EBD3705EEA430E08BF20EAD37070BD9B
:1065F80094F0000F0FD101F00046400041EB01017B
:1066080011F4801F08BF013CF7D041EA060195F05C
:10661800000F18BF704703F00046520043EB030316
:1066280013F4801F08BF013DF7D043EA0603704703
:1066380094EA0C0F0CEA135518BF95EA0C0F0CD00E
:1066480050EA410618BF52EA4306D1D181EA030154
:1066580001F000414FF0000070BD50EA410606BF4E
:106668001046194652EA430619D094EA0C0F02D193
:1066780050EA013613D195EA0C0F05D152EA0336D8
:106688001CBF104619460AD181EA030101F00041F6
:1066980041F0FE4141F470014FF0000070BD41F03F
:1066A800FE4141F4780170BD70B54FF0FF0C4CF419
:1066B800E06C1CEA11541DBF1CEA135594EA0C0F38
:1066C80095EA0C0F00F0A7F8A4EB050481EA030E85
:1066D80052EA03354FEA013100F088804FEA03336C
:1066E8004FF0805545EA131343EA12634FEA02223A
:1066F80045EA111545EA10654FEA00260EF00041FB
:106708009D4208BF964244F1FD0404F5407402D24C
:106718005B084FEA3202B61A65EB03055B084FEADD
:1067280032024FF480104FF4002CB6EB020E75EBDA
:10673800030E22BFB61A754640EA0C005B084FEA02
:106748003202B6EB020E75EB030E22BFB61A75467F
:1067580040EA5C005B084FEA3202B6EB020E75EBCA
:10676800030E22BFB61A754640EA9C005B084FEA42
:106778003202B6EB020E75EB030E22BFB61A75464F
:1067880040EADC0055EA060E18D04FEA051545EA3E
:1067980016754FEA06164FEAC30343EA52734FEAE7
:1067A800C2025FEA1C1CC0D111F4801F0BD141EA60
:1067B80000014FF000004FF0004CB6E711F4801FC5
:1067C80004BF01430020B4F1FD0C88BFBCF5E06FA5
:1067D8003FF6AFAEB5EB030C04BFB6EB020C5FEAB5
:1067E800500C50F1000041EB045170BD0EF0004E0A
:1067F8004EEA113114EB5C04C2BFD4EB0C0541EA3C
:10680800045170BD41F480114FF0000E013C90E638
:1068180045EA060E8DE60CEA135594EA0C0F08BFFC
:1068280095EA0C0F3FF43BAF94EA0C0F0AD150EAFB
:1068380001347FF434AF95EA0C0F7FF425AF10468E
:1068480019462CE795EA0C0F06D152EA03353FF4B6
:10685800FDAE1046194622E750EA410618BF52EA33
:1068680043067FF4C5AE50EA41047FF40DAF52EA07
:1068780043057FF4EBAE12E74FF0FF3C06E000BFA4
:106888004FF0010C02E000BF4FF0010C4DF804CDB1
:106898004FEA410C7FEA6C5C4FEA430C18BF7FEA71
:1068A8006C5C1BD001B050EA410C0CBF52EA430C9F
:1068B80091EA030F02BF90EA020F0020704710F11F
:1068C800000F91EA030F58BF994208BF90422CBFAE
:1068D800D8176FEAE37040F0010070474FEA410CA7
:1068E8007FEA6C5C02D150EA013C07D14FEA430CC5
:1068F8007FEA6C5CD6D152EA033CD3D05DF8040B36
:10690800704700BF8446104662468C461946634667
:1069180000E000BF01B5FFF7B7FF002848BF10F13E
:10692800000F01BD4DF808EDFFF7F4FF0CBF012083
:1069380000205DF808FB00BF4DF808EDFFF7EAFFFF
:1069480034BF012000205DF808FB00BF4DF808EDBA
:10695800FFF7E0FF94BF012000205DF808FB00BFAF
:106968004DF808EDFFF7CEFF94BF012000205DF839
:1069780008FB00BF4DF808EDFFF7C4FF34BF012046
:1069880000205DF808FB00BF4FEA410C7FEA6C5C11
:1069980002D150EA013C0AD14FEA430C7FEA6C5C11
:1069A80002D152EA033C02D14FF0000070474FF089
:1069B800010070474FEA410212F5001215D211D5B5
:1069C8006FF47873B3EB625212D94FEAC12343F0E4
:1069D800004343EA505311F0004F23FA02F018BF66
:1069E800404270474FF00000704750EA013005D12F
:1069F80011F0004008BF6FF0004070474FF00000F2
:106A0800704700BF4A0011D212F5001211D20DD5FD
:106A18006FF47873B3EB62520ED44FEAC12343F09C
:106A2800004343EA505323FA02F070474FF0000046
:106A3800704750EA013002D14FF0FF3070474FF0F5
:106A4800000070474FEA4102B2F1E04324BFB3F5BA
:106A5800001CDCF1FE5C0DD901F0004C4FEAC002CD
:106A68004CEA5070B2F1004F40EB830008BF20F0B1
:106A78000100704711F0804F21D113F13872BCBF6B
:106A880001F00040704741F480114FEA5252C2F1C0
:106A98001802C2F1200C10FA0CF320FA02F018BF09
:106AA80040F001004FEAC1234FEAD32303FA0CFC5C
:106AB80040EA0C0023FA02F34FEA4303CCE77FEAEB
:106AC800625307D150EA01331EBF4FF0FE4040F435
:106AD8004000704701F0004040F0FE4040F40000E4
:106AE800704700BF10B5054C13462CB10A46014645
:106AF8000220AFF3008010BD204610BD000000004A
:106B080010B5431E0A44914204D011F8014B03F812
:106B1800014FF8E710BD02440346934202D003F840
:106B2800011BFAE77047000038B5124B1C68A36BCD
:106B38000546D3B91820FEF7C3FA43F20E33A06313
:106B480003804AF6CD33438041F2342383804EF2EA
:106B58006D63C3804DF6EC630381052343810B23EA
:106B6800838101220023C0E90423A36B00221D6155
:106B78005A6138BDA4E30320034613F8012B002A09
:106B8800FBD1181A013870471D400D0059400D00FF
:106B980085400D0089400D000000000054686F6DAD
:106BA800657363686F6F6C646576000000000000B1
:106BB80000000000C5400D00E1410D000D4C0D0026
:106BC80095520D0029450D000D490D008D430D000E
:106BD80019420D00CD490D00634A0D009B4A0D0076
:106BE800B74A0D000000000000000000000000008F
:106BF800000000000D4C0D0095520D00A1400D0045
:106C08000D490D002D4A0D00494A0D00CD490D00D2
:106C1800634A0D009B4A0D00B74A0D0000000000B2
:106C2800003E5B4F5B3E3E6B4F6B3E1C3E7C3E1C0A
:106C3800183C7E3C181C577D571C1C5E7F5E1C0050
:106C4800183C1800FFE7C3E7FF0018241800FFE707
:106C5800DBE7FF30483A060E2629792926407F05CA
:106C68000507407F05253F5A3CE73C5A7F3E1C1CE0
:106C780008081C1C3E7F14227F22145F5F005F5FA0
:106C880006097F017F006689956A6060606060948C
:106C9800A2FFA29408047E040810207E2010080891
:106CA8002A1C08081C2A08081E101010100C1E0C9C
:106CB8001E0C30383E3830060E3E0E06000000002E
:106CC8000000005F00000007000700147F147F1415
:106CD800242A7F2A1223130864623649562050005A
:106CE80008070300001C2241000041221C002A1C46
:106CF8007F1C2A08083E0808008070300008080831
:106D08000808000060600020100804023E51494550
:106D18003E00427F400072494949462141494D336E
:106D28001814127F1027454545393C4A49493141D5
:106D3800211109073649494936464949291E0000A3
:106D480014000000403400000008142241141414F8
:106D58001414004122140802015909063E415D59E4
:106D68004E7C1211127C7F494949363E41414122ED
:106D78007F4141413E7F494949417F090909013E17
:106D8800414151737F0808087F00417F410020403E
:106D9800413F017F081422417F404040407F021C50
:106DA800027F7F0408107F3E4141413E7F09090967
:106DB800063E4151215E7F09192946264949493233
:106DC80003017F01033F4040403F1F2040201F3FF9
:106DD8004038403F6314081463030478040361597E
:106DE800494D43007F4141410204081020004141C0
:106DF800417F04020102044040404040000307086C
:106E08000020545478407F28444438384444442867
:106E1800384444287F385454541800087E0902180E
:106E2800A4A49C787F0804047800447D4000204096
:106E3800403D007F1028440000417F40007C0478DA
:106E480004787C080404783844444438FC18242422
:106E58001818242418FC7C080404084854545424A2
:106E680004043F44243C4040207C1C2040201C3C1F
:106E78004030403C44281028444C9090907C446416
:106E8800544C4400083641000000770000004136A9
:106E9800080002010204023C2623263C1EA1A1612F
:106EA800123A4040207A3854545559215555794161
:106EB8002154547841215554784020545579400C38
:106EC8001E52721239555555593954545459395519
:106ED8005454580000457C410002457D420001455C
:106EE8007C40F0292429F0F0282528F07C545545C9
:106EF800002054547C547C0A097F4932494949325C
:106F08003248484832324A4848303A4141217A3A70
:106F180042402078009DA0A07D39444444393D403A
:106F280040403D3C24FF2424487E4943662B2FFCE7
:106F38002F2BFF0929F620C0887E09032054547995
:106F4800410000447D413048484A32384040227A66
:106F5800007A0A0A727D0D19317D2629292F2826E3
:106F68002929292630484D402038080808080808EB
:106F78000808382F10C8ACBA2F102834FA00007B44
:106F8800000008142A142222142A1408AA00550002
:106F9800AAAA55AA55AA000000FF00101010FF0069
:106FA800141414FF001010FF00FF1010F010F0145C
:106FB8001414FC001414F700FF0000FF00FF141461
:106FC800F404FC141417101F10101F101F141414AD
:106FD8001F00101010F0000000001F101010101FEC
:106FE80010101010F010000000FF101010101010FA
:106FF800101010FF10000000FF140000FF00FF0039
:10700800001F10170000FC04F414141710171414B0
:10701800F404F40000FF00F714141414141414F703
:1070280000F7141414171410101F101F141414F45C
:10703800141010F010F000001F101F0000001F14A3
:10704800000000FC140000F010F01010FF10FF14F6
:107058001414FF141010101F00000000F010FFFFA0
:10706800FFFFFFF0F0F0F0F0FFFFFF00000000006E
:10707800FFFF0F0F0F0F0F38444438447C2A2A3E75
:10708800147E02020606027E027E026355494163AF
:107098003844443C04407E201E2006027E020299A9
:1070A800A5E7A5991C2A492A1C4C7201724C304A42
:1070B8004D4D303048784830BC625A463D3E4949CB
:1070C80049007E0101017E2A2A2A2A2A44445F4473
:1070D8004440514A444040444A51400000FF0103A3
:1070E800E080FF000008086B6B083612362436066D
:1070F8000F090F060000181800000010100030409B
:10710800FF0101001F01011E00191D1712003C3C60
:107118003C3C0000000000000000000000000000EF
:1071280047510D003D510D0033510D0029510D00FF
:107138001D510D0011510D0005510D00FD500D00A0
:10714800F3500D00E9500D00DD5B0D00000000005C
:107158000000000065510D0067510D00000810186F
:10716800202830386E616E006F7666002E00696EDA
:1071780066006C6E00666E00636F6465006465741B
:1071880061696C000D0A00253031307520005D20E2
:10719800002564002C200028293A2000205B006389
:1071A8006F6465203D200025690064657461696C21
:1071B80073203D2000626175640053657269616CDB
:1071C8000053657269616C31007479706500706193
:1071D80072616D00636D6400696400686E640073B9
:1071E80074726D0066696C74006C766C006164641E
:1071F80048616E646C65720072656D6F7665486192
:107208006E646C657200656E756D48616E646C6560
:107218007273004A534F4E53747265616D4C6F67B9
:1072280048616E646C657200617070006E6F6E65A7
:1072380000747261636500696E666F007761726ED3
:10724800006572726F720070616E696300616C6CC8
:10725800005A00252B3033643A2530327500255901
:107268002D256D2D25645425483A254D3A2553255D
:107278007A0061736374696D6500000000000000A6
:10728800000000006B560D005D560D005F560D00A6
:10729800000000000000000045570D0089570D0050
:1072A80063570D0095520D005D570D0047570D00AF
:1072B8004F570D0083570D0057570D0041570D00CC
:1072C800000000000000000021580D0045580D0086
:1072D80051580D0095520D002D580D0039580D00CC
:1072E80033580D003F580D0023580D0027580D0046
:1072F8000000000000000000F5580D003F590D0087
:1073080017590D00F7580D001F590D0027590D008A
:107318002F590D0037590D00000000000000000033
:10732800FF590D00F5590D00EB590D00E1590D00FD
:10733800D5590D00C9590D00BD590D00B5590D009D
:10734800AB590D00A1590D00DD5B0D0000000000D8
:1073580000000000575B0D004D5B0D00435B0D0006
:10736800F95A0D00375B0D002B5B0D001F5B0D00FC
:10737800175B0D000D5B0D00035B0D00DD5B0D0061
:107388000000000000000000755B0D007F5B0D0031
:10739800895B0D00935B0D009D5B0D00A95B0D00E3
:1073A800B55B0D00C15B0D00C95B0D00D35B0D0023
:1073B800DD5B0D0000000000000000000000000080
:1073C80000000000000000000000000000000000B5
:1073D80000000000000000000000000000000000A5
:1073E8000000000000000000000000000000000095
:1073F8000000000000000000000000000000000085
:107408000000000000000000000000000000000074
:107418000000000043000000ED410D0009490D0087
:107428009D4C0D0051510D007D520D0025550D004C
:1074380035550D006D550D00AD5A0D00615B0D0001
:10744800A95C0D00CD5D0D005D5E0D00E15E0D00D7
:08745800A55F0D0069600D0045
:10746000E8030000000103070F1F3F7F0080C0E01A
:10747000F0F8FCFE0000000000000000000000002A
:1074800000000000000000000000000000000000FC
:1074900000000000000000000000000000000000EC
:1074A00000000000000000000000000000000000DC
:1074B000000000808080000000000000000000004C
:1074C00000000000008080C0C0000000000000003C
:1074D00000000000000000000000000000000000AC
:1074E000000000000000000000000000000000009C
:1074F000000000000000000000000000000000008C
:10750000000000000000000080C0E0F0F8FCF8E09F
:10751000000000000000000000000000000000006B
:10752000008080808080008080000000008080805B
:10753000808000FFFFFF000000008080808000004E
:107540008080000080FFFF8080008080008080803D
:10755000800080800000000000808000008C8E840D
:10756000000080F8F8F88000000000000000000033
:1075700000000000F0F0F0F0F0F0F0F0F0F0F0F0CB
:10758000E0E0C08000E0FCFEFFFFFF7FFFFFFFFFA9
:10759000FF0000000000000000000000000000FEEE
:1075A000FFC70101010183FFFF00007CFEC701014D
:1075B000010183FFFFFF0038FEC78301010183C77C
:1075C000FFFF000001FFFF010100FFFF07010101B4
:1075D00000007FFF80000000FFFF7F0000FFFFFF33
:1075E000000001FFFFFF010000000000000000009C
:1075F00000000000030F3F7F7FFFFFFFFFFFFFFF43
:10760000E7C7C78F8F9FBFFFFFC3C0F0FFFFFFFF1C
:10761000FFFCFCFCFCFCFCFCFCF8F8F0F0E0C0001B
:10762000010303030303010303000000000103033C
:10763000030301010301000000010303030301012F
:107640000303000000030300000003030000000028
:107650000000000103030303030100000001030114
:107660000000000303010000000000000000000013
:107670000000000000000080C0E0F0F9FFFFFFFF05
:10768000FF3F1F0F87C7F7FFFF1F1F3DFCF8F8F8EC
:10769000F87C7DFFFFFFFFFFFFFFFF7F3F0F07002D
:1076A000303000000000000000000000000000007A
:1076B0000000000000000000FEFEFC0000000000D2
:1076C00000000000000000000000000000000000BA
:1076D00000E0C000000000000000000000003030AA
:1076E000000000000000000000000000000000009A
:1076F0000000000000C0FEFFFFFFFFFFFFFFFFFFD5
:107700007F7F3F1F0F071F7FFFFFF8F8FFFFFFFF7F
:10771000FFFEF8E000000001000000000000000093
:10772000FEFE000000FCFEFC0C06060EFCF800004D
:10773000F0F81C0E0606060CFFFFFF0000FEFE0020
:10774000000000FCFEFC00183C7E66E6CE840000D3
:1077500006FFFF0606FCFEFC0C0606060000FEFE09
:107760000000C0F8FC4E4646464E7C7840183C76F9
:10777000E6CECC8000000000000000000000000009
:10778000000000000000000001070F1F1F3F3F3FE7
:107790003F1F0F0300000000000000000000000079
:1077A0000F0F0000000F0F0F000000000F0F000070
:1077B00003070E0C18180C060F0F0F0000010F0E18
:1077C0000C180C0F070100040E0C180C0F0700001A
:1077D000000F0F00000F0F0F0000000000000F0F40
:1077E00000000007070C0C181C0C060600040E0C09
:1077F000180C0F070000000000000000000000004F
:107800000000000000000000000000000000000078
:107810000000000000000000000000000000000068
:107820000000000000000000000000000000000058
:107830000000000000000000000000000000000048
:107840000000000000000000000000000000000038
:107850000000000000000000000000000000000028
:107860000000000000000000000000000000000018
:10787000000000007A720D0000000000BC730D00D3
:10788000DC730D00FC730D00000000000000000020
:1078900000000000000000001C740D00000000004B
:1078A00000000000000000000000000000000000D8
:1078B00000000000000000000000000000000000C8
:1078C00000000000000000000000000000000000B8
:0C78D000000000000000000044E3032062
:1078DC00FFFFFFFF00000102030405060708090A69
:1078EC000B0C0D0E0F101112131415161718191A64
:0878FC001B1C1D1E1F202800AB
:04790400785634126B
:04000003D0004018D1
:00000001FF
